:100000000C945D000C9485000C9485000C94850084
:100010000C9485000C9485000C9485000C9485004C
:100020000C9485000C9485000C9485000C94D404E9
:100030000C9485000C9485000C9485000C9485002C
:100040000C9432040C9485000C94A2040C947C044F
:100050000C9485000C9485000C9485000C9485000C
:100060000C9485000C9485000000000024002700FB
:100070002A0000000000250028002B0004040404CE
:100080000404040402020202020203030303030342
:10009000010204081020408001020408102001021F
:1000A00004081020000000080002010000030407FB
:1000B0000000000000000000AB0511241FBECFEFC0
:1000C000D8E0DEBFCDBF11E0A0E0B1E0ECEEF6E19C
:1000D00002C005900D92A034B107D9F722E0A0E448
:1000E000B1E001C01D92AF31B207E1F710E0CDE5FC
:1000F000D0E004C02197FE010E945A09CC35D107F7
:10010000C9F70E94EB050C94740B0C94000090E06E
:10011000FC01EC55FF4F2491FC01E057FF4F349157
:10012000FC01E458FF4FE491EE23C9F0222339F09B
:10013000233001F1A8F4213019F1223029F1F0E047
:10014000EE0FFF1FEE58FF4FA591B4918FB7F894B3
:10015000EC91611126C030953E233C938FBF0895EA
:100160002730A9F02830C9F0243049F78091800069
:100170008F7D03C0809180008F7780938000DFCFD8
:1001800084B58F7784BDDBCF84B58F7DFBCF809125
:10019000B0008F778093B000D2CF8091B0008F7D78
:1001A000F9CF3E2BDACFAF92BF92CF92DF92EF9290
:1001B000FF920F931F93CF93DF936C017B018B0111
:1001C000040F151FEB015E01AE18BF08C017D10761
:1001D00059F06991D601ED91FC910190F081E02DEB
:1001E000C6010995892B79F7C501DF91CF911F9140
:1001F0000F91FF90EF90DF90CF90BF90AF90089558
:10020000FC01538D448D252F30E0842F90E0821B1C
:10021000930B541710F0CF96089501970895FC01A1
:10022000918D828D981761F0A28DAE0FBF2FB11DF9
:100230005D968C91928D9F5F9F73928F90E0089551
:100240008FEF9FEF08952FB7F89480916B019091F5
:100250006C01A0916D01B0916E012FBF8093770169
:1002600090937801A0937901B0937A018FE691E0A1
:100270000E940F0197FF26C02FB7F89480916B0161
:1002800090916C01A0916D01B0916E012FBF4091D2
:100290007701509178016091790170917A01841B06
:1002A000950BA60BB70B40917301509174016091AF
:1002B00075017091760184179507A607B707B0F20C
:1002C0008FEF9FEF0895FC01918D828D981731F08B
:1002D000828DE80FF11D858D90E008958FEF9FEFDF
:1002E0000895FC01918D228D892F90E0805C9F4FB5
:1002F000821B91098F73992708958FE691E00E94E0
:10030000710121E0892B09F420E0822F089580E01B
:1003100090E0892B29F00E947D0181110C9400004E
:100320000895FC01A48DA80FB92FB11DA35ABF4F8A
:100330002C91848D90E001968F739927848FA689E4
:10034000B7892C93A089B1898C91837080648C9338
:10035000938D848D981306C00288F389E02D8081E7
:100360008F7D80830895EF92FF920F931F93CF9319
:10037000DF93EC0181E0888F9B8D8C8D98131AC0E0
:10038000E889F989808185FF15C09FB7F894EE89C7
:10039000FF896083E889F989808183708064808324
:1003A0009FBF81E090E0DF91CF911F910F91FF906F
:1003B000EF900895F62E0B8D10E00F5F1F4F0F7317
:1003C0001127E02E8C8D8E110CC00FB607FCFACFD2
:1003D000E889F989808185FFF5CFCE010E949101DE
:1003E000F1CFEB8DEC0FFD2FF11DE35AFF4FF082A3
:1003F0009FB7F8940B8FEA89FB8980818062CFCF09
:10040000CF93DF93EC01888D8823B9F0AA89BB894B
:10041000E889F9898C9185FD03C0808186FD0DC036
:100420000FB607FCF7CF8C9185FFF2CF808185FF57
:10043000EDCFCE010E949101E9CFDF91CF910895D8
:10044000CF93DF93DC018C918C3008F06EC0CB0130
:100450009927FC01E057FF4F249184589F4FFC01DE
:100460008491882399F090E0880F991FFC01E85946
:10047000FF4FC591D491FC01EE58FF4F85919491A7
:100480008FB7F894E881E22BE8838FBF8C91282FF7
:1004900030E0F901EE0FFF1FE20FF31FEE5BFE4F9E
:1004A000962F9F736081607C692B608311961C92EC
:1004B000119712961C9212972CE0622F0E944E09FF
:1004C000829FB001112430E020E0AB01420F531FA6
:1004D000FA01EE0FFF1FE40FF51FEE5BFE4F908158
:1004E00096FD16C02F5F3F4F2C30310571F78111FB
:1004F0000FC01092800082E08093810010928500EE
:1005000010928400B19A80916F00826080936F0096
:10051000EC918E2F90E0FC01EE0FFF1FE80FF91F0A
:10052000EE5BFE4F8081806480838C91DF91CF9160
:100530000895FC0124813581232B39F421E0FB014E
:100540008081882349F020E007C0808191810E944A
:10055000560B21E0892BB9F7822F08950F931F9333
:10056000CF93DF93EC0188819981009759F02A811C
:100570003B812617370730F081E0DF91CF911F9143
:100580000F9108958B016F5F7F4F0E94850A00973E
:1005900059F0998388831B830A832C813D81232B07
:1005A00059F7FC011082E8CF80E0E7CFCF93DF93CB
:1005B000EC0188819981009711F00E94FC09198251
:1005C00018821D821C821B821A82DF91CF910895AE
:1005D000EF92FF920F931F93CF93DF93EC017B0178
:1005E0008A01BA010E94AE0281110BC0CE010E94A5
:1005F000D602CE01DF91CF911F910F91FF90EF9026
:1006000008951D830C83B701888199810E945F0B37
:10061000F0CFCF93DF93EC016115710571F0FB0111
:1006200001900020E9F73197AF01461B570B0E945C
:10063000E802CE01DF91CF9108950E94D602F9CF52
:10064000CF93DF93EC01FB018617970749F0608198
:1006500071816115710541F0448155810E94E80264
:10066000CE01DF91CF9108950E94D602F9CFFC010F
:10067000118210821382128215821482FB01019072
:100680000020E9F73197AF01461B570B0C94E802A5
:10069000FC0180819181009711F00C94FC09089570
:1006A0008F929F92AF92BF92DF92EF92FF920F9341
:1006B0001F93CF93DF9300D000D000D0CDB7DEB72B
:1006C0005C017B011A8219821C821B821E821D82A0
:1006D000BC01CE0101960E94200368E171E0CE01C9
:1006E00001960E94990208E112E081112AC06EE190
:1006F00071E0CE0101960E94990205E112E081119C
:1007000020C064E271E0CE0101960E94990202E1EC
:1007100012E0811116C06BE271E0CE0101960E94D9
:1007200099020FE012E081110CC060E371E0CE018C
:1007300001960E94990210E000E0882311F00CE07D
:1007400012E0CE0101960E9448030115110509F43B
:1007500077C01A8219821C821B821E821D82B501FB
:10076000CE0101960E94200368E171E0CE0101965E
:100770000E949902AFE0B0E0882311F0AEE1B0E052
:10078000EA16FB0634F0D701A63AB10514F0A5EA43
:10079000B0E0F801D080FBE0FD1508F44DC0F80191
:1007A000828148E5E42E42E0F42EE81AF10887FD44
:1007B000F394EE0CFF1CEE0CFF1C818108E810E0A6
:1007C000081B110987FD1395000F111F000F111F42
:1007D0004801012E000CAA08BB0897010F2C000C41
:1007E000440B550B281939094A095B090E94DE0898
:1007F00024EB30E040E050E00E94B408820E931EEB
:10080000A41EB51E801691062CF087018E149F043D
:100810000CF4840102501109000F111F2FB7F89436
:100820008D2D90E0FC01EE0FFF1FE80FF91FEE5B2E
:10083000FE4F128301832FBFCE0101960E94480311
:1008400026960FB6F894DEBF0FBECDBFDF91CF91D5
:100850001F910F91FF90EF90DF90BF90AF909F900E
:100860008F9008951F920F920FB60F9211242F931D
:100870003F938F939F93AF93BF9380916B01909120
:100880006C01A0916D01B0916E0130916A0123E07D
:10089000230F2D3758F50196A11DB11D20936A0134
:1008A00080936B0190936C01A0936D01B0936E01E6
:1008B0008091660190916701A0916801B0916901F2
:1008C0000196A11DB11D8093660190936701A093CD
:1008D0006801B0936901BF91AF919F918F913F9152
:1008E0002F910F900FBE0F901F90189526E8230FA1
:1008F0000296A11DB11DD2CF1F920F920FB60F927B
:1009000011242F933F934F935F936F937F938F9314
:100910009F93AF93BF93EF93FF938FE691E00E9475
:100920009101FF91EF91BF91AF919F918F917F9135
:100930006F915F914F913F912F910F900FBE0F904C
:100940001F9018951F920F920FB60F9211242F939C
:100950008F939F93EF93FF93E0917F01F09180013C
:100960008081E0918501F091860182FD1BC090811C
:10097000809188018F5F8F7320918901821741F0E8
:10098000E0918801F0E0E159FE4F958F8093880156
:10099000FF91EF919F918F912F910F900FBE0F902C
:1009A0001F9018958081F4CF1F920F920FB60F926F
:1009B00011242F933F934F935F936F937F938F9364
:1009C0009F93AF93BF93CF93DF93EF93FF93809168
:1009D0004001C0914101D0E087FF24C01092850002
:1009E00010928400809140018F5F8093400180913C
:1009F0004001082E000C990B8C179D0724F4809160
:100A000040018C30C4F1809184009091850004965F
:100A100080349C4908F47AC08091840090918500CC
:100A2000049676C080914001082E000C990B8C171B
:100A30009D07C4F6E09140018E2FEE0F990BFC014B
:100A4000EE0FFF1FE80FF91FEE5BFE4F808186FF60
:100A5000C9CFE09140018E2FEE0F990BFC01EE0FF4
:100A6000FF1FE80FF91FEE5BFE4F808160E08F7380
:100A70000E948700B7CF2091840030918500E091DB
:100A800040018E2FEE0F990BFC01EE0FFF1FE80FB8
:100A9000F91FEE5BFE4F81819281820F931F90932D
:100AA000890080938800E09140018E2FEE0F990B12
:100AB000FC01EE0FFF1FE80FF91FEE5BFE4F808178
:100AC00086FF11C0E09140018E2FEE0F990BFC01C3
:100AD000EE0FFF1FE80FF91FEE5BFE4F808161E014
:100AE0008F730E948700FF91EF91DF91CF91BF91AB
:100AF000AF919F918F917F916F915F914F913F91B6
:100B00002F910F900FBE0F901F90189580E49CE9D5
:100B100090938900809388008FEF80934001E3CF0A
:100B2000FC01909141019C3098F481E0890F809301
:100B300041019083892F90E0FC01EE0FFF1FE80F29
:100B4000F91FEE5BFE4F88EB9BE092838183089553
:100B50008FEF80830895EFE6F1E01382128288EE32
:100B600093E0A0E0B0E084839583A683B7838AE016
:100B700091E09183808385EC90E09587848784EC75
:100B800090E09787868780EC90E0918B808B81EC5A
:100B900090E0938B828B82EC90E0958B848B86EC3B
:100BA00090E0978B868B118E128E138E148E88E1B7
:100BB00092E00E94900585E192E00E94900582E11A
:100BC00092E00E9490058FE092E00E9490058CE0F8
:100BD00092E00C949005CF93DF93CDB7DEB7629788
:100BE0000FB6F894DEBF0FBECDBF789484B5826097
:100BF00084BD84B5816084BD85B5826085BD85B5C1
:100C0000816085BD80916E00816080936E0010923E
:100C100081008091810082608093810080918100B9
:100C2000816080938100809180008160809380004A
:100C30008091B10084608093B1008091B0008160A8
:100C40008093B00080917A00846080937A008091D4
:100C50007A00826080937A0080917A00816080932C
:100C60007A0080917A00806880937A001092C100A7
:100C7000E0917F01F091800182E08083E0917B012F
:100C8000F0917C011082E0917D01F0917E0180E184
:100C9000808310928701E0918301F091840186E0C6
:100CA0008083E0918101F091820180818061808365
:100CB000E0918101F0918201808188608083E091E0
:100CC0008101F0918201808180688083E0918101BF
:100CD000F091820180818F7D80836CE070E088E1FB
:100CE00092E00E9420026AE070E085E192E00E94BA
:100CF000200269E070E082E192E00E94200266E05A
:100D000070E08FE092E00E94200262E070E08CE0F0
:100D100092E00E94200268E171E0CE0101960E94FB
:100D2000370365EA70E0CE0101960E945003CE01C0
:100D300001960E9448036EE171E0CE0101960E9487
:100D4000370365EA70E0CE0101960E945003CE01A0
:100D500001960E94480364E271E0CE0101960E9470
:100D6000370365EA70E0CE0101960E945003CE0180
:100D700001960E9448036BE271E0CE0101960E9449
:100D8000370365EA70E0CE0101960E945003CE0160
:100D900001960E94480360E371E0CE0101960E9433
:100DA000370365EA70E0CE0101960E945003CE0140
:100DB00001960E94480320E0C22E20E0D22E8FE64A
:100DC00091E00E947101181619060CF034C16AE313
:100DD00071E0CE010D960E9437030E94230197FD1A
:100DE0001EC08A309105D9F089831A8209891A892F
:100DF0000F5F1F4FB801CE010D960E94AE028823EF
:100E000061F32D853E8589899A89BE016F5F7F4F89
:100E1000820F931F0E945F0B1A8B098BDECFAD846C
:100E2000BE84A114B10439F009891A89750101152C
:100E3000110509F00DC166E371E0CE0101960E9433
:100E400037034D815E8189899A898417950770F0EF
:100E50008D859E85009751F069817A8161157105B4
:100E600029F00E94660B11E0892B09F010E0CE01F9
:100E700001960E944803112309F4D9C089899A89EF
:100E8000892B09F4D4C0ED84FE846CE270E0C701C4
:100E90000E944B0B009709F4CAC08C010E191F0960
:100EA0000F3F100709F4C3C0480184E0A82EB12CFD
:100EB0000430110520F4580194E0892E912C6AE346
:100EC00071E0CE0107960E943703E988FA88AE14D4
:100ED000BF04C0F48E149F0408F47401ED85FE85F0
:100EE000EE0DFF1D908010826D857E856A0D7B1D45
:100EF000CE0107960E9409038D859E85E80EF91E96
:100F0000F70190820F5F1F4FA988BA88A016B1061B
:100F100028F4902F812F8501A92EB82E6AE371E065
:100F2000CE0101960E943703E988FA880E151F0545
:100F3000C0F4AE14BF0408F47501ED85FE85EE0D16
:100F4000FF1DB08010826D857E85600F711FCE0100
:100F500001960E9409038D859E85E80EF91EF70112
:100F6000B08289819A81812C912C5401009719F0CB
:100F70000E946C084B01CE0101960E9448036BE36E
:100F800071E0CE0107960E949902882309F496C069
:100F900068E171E0CE0101960E943703B401CE01F1
:100FA00001960E945003CE0101960E9448036EE113
:100FB00071E0CE0101960E943703B401CE01019683
:100FC0000E945003CE0101960E94480364E271E042
:100FD000CE0101960E943703B401CE0101960E9412
:100FE0005003CE0101960E9448036BE271E0CE01EE
:100FF00001960E943703B401CE0101960E9450036E
:10100000CE0101960E94480360E371E0CE01019693
:101010000E943703B401CE0101960E945003CE0115
:1010200001960E944803CE0107960E944803CE0114
:101030000D960E944803C114D10409F4C0CE0E9449
:101040007D01882309F4BBCE0E940000B8CE740154
:1010500047018FEF881A980AF7018081082E000C4B
:10106000990B0E94A808892B91F7015011090A0DCC
:101070001B1DF8018081082E000C990B0E94A80806
:10108000892B31F00E151F0518F001501109F1CF11
:10109000A8014F5F5F4F4E195F095A8B498BAE1401
:1010A000BF0420F4B701C5010E94420BED85FE8507
:1010B00089899A89E80FF91F1082BDCE1A82198298
:1010C0001C821B821E821D82BE01695F7F4FCE0182
:1010D00001960E9420039ECF1F93FC019927882729
:1010E000BC01E89411911032E9F3193010F01E3070
:1010F000C8F31B3251F01D3249F4689406C00E94B7
:101100009308610F711D811D911D119110531A30AB
:10111000B0F33EF490958095709561957F4F8F4F19
:101120009F4F1F910895592F482F372F262F660F55
:10113000771F881F991F660F771F881F991F620FDF
:10114000731F841F951F660F771F881F991F0895AF
:1011500091110C94B108803219F089508550C8F76C
:101160000895992788270895052E97FB1EF400946B
:101170000E94CB0857FD07D00E941D0907FC03D031
:101180004EF40C94CB0850954095309521953F4FE7
:101190004F4F5F4F089590958095709561957F4F63
:1011A0008F4F9F4F08950E943F09A59F900DB49FB8
:1011B000900DA49F800D911D11240895B7FF0C94EC
:1011C000D3080E94D308821B930B08952F923F925D
:1011D0004F925F926F927F928F929F92AF92BF9247
:1011E000CF92DF92EF92FF920F931F93CF93DF93F3
:1011F000CDB7DEB7CA1BDB0B0FB6F894DEBF0FBE50
:10120000CDBF09942A88398848885F846E847D849C
:101210008C849B84AA84B984C884DF80EE80FD809E
:101220000C811B81AA81B981CE0FD11D0FB6F89414
:10123000DEBF0FBECDBFED010895A1E21A2EAA1B9D
:10124000BB1BFD010DC0AA1FBB1FEE1FFF1FA21776
:10125000B307E407F50720F0A21BB30BE40BF50B73
:10126000661F771F881F991F1A9469F760957095FC
:10127000809590959B01AC01BD01CF010895A29F7F
:10128000B001B39FC001A39F700D811D1124911D5A
:10129000B29F700D811D1124911D0895991B79E055
:1012A00004C0991F961708F0961B881F7A95C9F7F6
:1012B00080950895EE0FFF1F0590F491E02D09949D
:1012C0000F931F93CF93DF938230910510F482E048
:1012D00090E0E0911D02F0911E0230E020E0B0E0CD
:1012E000A0E0309799F42115310509F44AC0281B74
:1012F000390B24303105D8F58A819B816115710540
:1013000089F1FB0193838283FE0111C040815181E9
:101310000281138148175907E0F04817590799F4DB
:10132000109761F012960C93129713961C933296B5
:10133000CF01DF91CF911F910F91089500931D026E
:1013400010931E02F4CF2115310551F042175307B7
:1013500038F0A901DB019A01BD01DF01F801C1CF1D
:10136000EF01F9CF90931E0280931D02CDCFFE01B5
:10137000E20FF31F8193919322503109398328831F
:10138000D7CF20911B0230911C02232B41F42091D6
:1013900002013091030130931C0220931B02209123
:1013A0000001309101012115310541F42DB73EB7FF
:1013B0004091040150910501241B350BE0911B0263
:1013C000F0911C02E217F307A0F42E1B3F0B281725
:1013D000390778F0AC014E5F5F4F2417350748F0AE
:1013E0004E0F5F1F50931C0240931B0281939193F9
:1013F0009FCFF0E0E0E09CCFCF93DF930097E9F040
:10140000FC01329713821282A0911D02B0911E023C
:10141000ED0130E020E01097A1F420813181820FAE
:10142000931F20911B0230911C022817390709F0E5
:1014300061C0F0931C02E0931B02DF91CF910895ED
:10144000EA01CE17DF07E8F54A815B819E0141156D
:101450005105B1F7E901FB83EA8349915991C40F22
:10146000D51FEC17FD0761F4808191810296840FEE
:10147000951FE90199838883828193819B838A8365
:10148000F0E0E0E012968D919C9113970097B9F5EA
:101490002D913C911197CD010296820F931F2091BF
:1014A0001B0230911C022817390739F6309751F585
:1014B00010921E0210921D02B0931C02A0931B02F8
:1014C000BCCFD383C28340815181840F951FC8173D
:1014D000D90761F44E5F5F4F88819981480F591F8A
:1014E000518340838A819B819383828321153105B7
:1014F00009F0B0CFF0931E02E0931D029ECFFD01D4
:10150000DC01C0CF13821282D7CFB0E0A0E0EBE8BD
:10151000FAE00C94E8088C01009751F4CB010E948A
:1015200060098C01C801CDB7DEB7E0E10C94040975
:10153000FC01E60FF71F9C0122503109E217F30767
:1015400008F49DC0D901CD91DC911197C617D7073A
:1015500098F0C530D10530F3CE0104978617970770
:1015600008F3C61BD70B2297C193D1936D937C933D
:10157000CF010E94FC09D6CF5B01AC1ABD0A4C0119
:101580008C0E9D1EA0911D02B0911E02512C412C6B
:10159000F12CE12C109731F580911B0290911C02E7
:1015A0008815990509F05CC04616570608F058C022
:1015B0008091000190910101009741F48DB79EB791
:1015C0004091040150910501841B950BE817F90720
:1015D00008F055C0F0931C02E0931B02F9017183DF
:1015E0006083A0CF8D919C91119712966C90129769
:1015F00013967C901397A815B90559F56C0142E034
:10160000C40ED11CCA14DB0420F1AC014A195B09D9
:10161000DA011296159780F06282738251834083BB
:10162000D9016D937C93E114F10471F0D701139605
:10163000FC93EE93129776CF22968C0F9D1FF901A3
:1016400091838083F301EFCFF0931E02E0931D029C
:1016500069CF4816590608F42C017D01D3019ACFB1
:10166000CB010E9460097C01009749F0AE01B801EE
:101670000E94420BC8010E94FC09870153CF10E071
:1016800000E050CFFB01DC0102C001900D924150FF
:101690005040D8F70895FC018191861721F08823E6
:1016A000D9F7992708953197CF010895FB01DC01FF
:1016B0008D91019080190110D9F3990B0895FB01C8
:1016C000DC0101900D920020E1F70895FB01DC019F
:1016D0004150504030F08D910190801919F4002054
:0C16E000B9F7881B990B0895F894FFCF10
:1016EC0000001F02800000000000B301D3000001C5
:1016FC00000271010F0163017468756D6200696EFF
:10170C00646578006D6964646C650072696E67006D
:10171C0070696E6B79005352563A00616C6C000024
:00000001FF
