:100000000C9463000C948B000C948B000C948B006C
:100010000C948B000C948B000C948B000C94850733
:100020000C948B000C948B000C948B000C948B0024
:100030000C948B000C948B000C948B000C948B0014
:100040000C943B070C948B000C9407080C94E1076C
:100050000C948B000C948B000C948B000C948B00F4
:100060000C948B000C948B000000000023002600F1
:1000700029000200000000240027002A00000000E0
:1000800000250028002B00040404040404040402D6
:100090000202020202030303030303010204081025
:1000A00020408001020408102001020408102000F2
:1000B0000000080002010000030407000000000027
:1000C00000000000880F11241FBECFEFD8E0DEBF74
:1000D000CDBF22E0A0E6B1E001C01D92AD32B20773
:1000E000E1F711E0A0E0B1E0E8EDF8E202C0059030
:1000F0000D92A036B107D9F710E0C3E6D0E004C0F6
:100100002197FE010E943F12C236D107C9F70E9413
:1001100039080C946A140C94000090E0FC01E1553D
:10012000FF4F2491FC01E556FF4F3491FC01E95744
:10013000FF4FE491EE23C9F0222339F0233001F17F
:10014000A8F4213019F1223029F1F0E0EE0FFF1F61
:10015000E358FF4FA591B4918FB7F894EC916111DA
:1001600026C030953E233C938FBF08952730A9F0D9
:100170002830C9F0243049F7809180008F7D03C07A
:10018000809180008F7780938000DFCF84B58F7758
:1001900084BDDBCF84B58F7DFBCF8091B0008F779E
:1001A0008093B000D2CF8091B0008F7DF9CF3E2BED
:1001B000DACFCF93DF9390E0FC01E556FF4F249117
:1001C00089579F4FFC0184918823D1F090E0880FDC
:1001D000991FFC01ED58FF4FA591B491FC01E35824
:1001E000FF4FC591D491623071F49FB7F8943C9160
:1001F000822F809583238C93E8812E2B28839FBFA9
:10020000DF91CF9108958FB7F894EC912E2B2C931A
:100210008FBFF6CF1F93CF93DF93182FEB0161E0D1
:100220000E94D900209739F460E0812FDF91CF91AF
:100230001F910C948D00CF3FD10511F461E0F5CFF3
:10024000E12FF0E0E155FF4FE491E33031F140F46C
:10025000E130B1F0E230E1F0C038D1057CF7E4CF15
:10026000E73029F1E83059F1E430B1F780918000AE
:10027000806280938000D0938B00C0938A0004C07A
:1002800084B5806884BDC7BDDF91CF911F9108956B
:1002900084B5806284BDC8BDF7CF8091800080683E
:1002A00080938000D0938900C0938800EDCF809127
:1002B000B00080688093B000C093B300E5CF809118
:1002C000B00080628093B000C093B400DDCF8E3068
:1002D00008F08E508770806480937C0080917A0053
:1002E000806480937A0080917A0086FDFCCF8091B3
:1002F00078009091790008953FB7F8948091880133
:1003000090918901A0918A01B0918B0126B5A89B9B
:1003100005C02F3F19F00196A11DB11D3FBFBA2F97
:10032000A92F982F8827BC01CD01620F711D811D57
:10033000911D42E0660F771F881F991F4A95D1F7DC
:1003400008958F929F92AF92BF92CF92DF92EF92D9
:10035000FF924B015C010E947C016B017C010E94B9
:100360007C016C197D098E099F09683E73408105E7
:100370009105A8F321E0821A9108A108B10888EE3E
:10038000C80E83E0D81EE11CF11C81149104A10465
:10039000B10429F7FF90EF90DF90CF90BF90AF901E
:1003A0009F908F9008952FB7F89460918401709179
:1003B000850180918601909187012FBF08959091CA
:1003C000000189130BC0E2E7F0E0E4919FEF909306
:1003D0000001E13049F028F0E23061F060E00C9477
:1003E0008D0010926E00FACF90916F009D7F9093D8
:1003F0006F00F4CF909170009D7F9093700091E01A
:100400009093B0009091B100987F94609093B10068
:100410001092B300E3CFAF92BF92CF92DF92EF92F0
:10042000FF920F931F93CF93DF936C017B018B019E
:10043000040F151FEB015E01AE18BF08C017D107EE
:1004400059F06991D601ED91FC910190F081E02D78
:10045000C6010995892B79F7C501DF91CF911F91CD
:100460000F91FF90EF90DF90CF90BF90AF900895E5
:10047000FC01538D448D252F30E0842F90E0821BAA
:10048000930B541710F0CF96089501970895FC012F
:10049000918D828D981761F0A28DAE0FBF2FB11D87
:1004A0005D968C91928D9F5F9F73928F90E00895DF
:1004B0008FEF9FEF08950F931F930E94D3016093D6
:1004C00094017093950180939601909397018CE825
:1004D00091E00E94470297FF1DC00E94D301009146
:1004E0009401109195012091960130919701601B24
:1004F000710B820B930B009190011091910120914F
:100500009201309193016017710782079307F8F207
:100510008FEF9FEF1F910F910895FC01918D828DB8
:10052000981731F0828DE80FF11D858D90E00895C8
:100530008FEF9FEF0895FC01918D228D892F90E020
:10054000805C9F4F821B91098F73992708958CE8D7
:1005500091E00E949B0221E0892B09F420E0822F88
:10056000089580E090E0892B29F00E94A702811174
:100570000C9400000895FC01A48DA80FB92FB11DA3
:10058000A35ABF4F2C91848D90E001968F739927C9
:10059000848FA689B7892C93A089B1898C918370A7
:1005A00080648C93938D848D981306C00288F389A0
:1005B000E02D80818F7D80830895EF92FF920F93CD
:1005C0001F93CF93DF93EC0181E0888F9B8D8C8DFF
:1005D00098131AC0E889F989808185FF15C09FB7F3
:1005E000F894EE89FF896083E889F98980818370B6
:1005F000806480839FBF81E090E0DF91CF911F9165
:100600000F91FF90EF900895F62E0B8D10E00F5F85
:100610001F4F0F731127E02E8C8D8E110CC00FB65B
:1006200007FCFACFE889F989808185FFF5CFCE01F3
:100630000E94BB02F1CFEB8DEC0FFD2FF11DE35AB1
:10064000FF4FF0829FB7F8940B8FEA89FB89808176
:100650008062CFCFCF93DF93EC01888D8823B9F0F0
:10066000AA89BB89E889F9898C9185FD03C08081BD
:1006700086FD0DC00FB607FCF7CF8C9185FFF2CF3A
:10068000808185FFEDCFCE010E94BB02E9CFDF91D3
:10069000CF910895CF92DF92EF92FF92CF93DF93A5
:1006A000DC011796CC911797D0E06111DC2F1896DA
:1006B0002C91189730E0220F331F28593F4F50E0FC
:1006C00040E0F90185919491FC01F080BA0190E03D
:1006D00080E0EF2DEC23ED1310C04F5F5F4F1D96B0
:1006E000CD90DD90ED90FC9050976C157D058E05BA
:1006F0009F0538F36FEF7FEFCB01DF91CF91FF9034
:10070000EF90DF90CF9008958F929F92AF92BF921B
:10071000CF92DF92EF92FF920F931F93CF93DF93CD
:10072000CDB7DEB7C054D1400FB6F894DEBF0FBED0
:10073000CDBF8C010E94D301F801C184D284E3842F
:10074000F4849B01AC012C193D094E095F09690134
:100750007A0130EDC31637E0D306E104F104A8F4C2
:100760008189C05CDE4F0FB6F894DEBF0FBECDBFEF
:10077000DF91CF911F910F91FF90EF90DF90CF907D
:10078000BF90AF909F908F90089561877287838705
:1007900094871482138212821182108262E0858112
:1007A0000E94D90061E070E080E090E00E94A10129
:1007B00061E0F80185810E94D90060E0F80185813F
:1007C0000E948D00F80186818551823028F58BE2E8
:1007D00091E10197F1F762E0F80185810E94D9006B
:1007E000F801828990E08230910538F0880F991FD6
:1007F000880F991F05970197F1F7F89460E0C801F9
:100800000E944A036F3F7F4F8F4F9F4F61F4F80163
:10081000118A789480E0A5CF64E170E080E090E0F8
:100820000E94A101D8CF61E0C8010E944A036F3F36
:100830007F4F8F4F9F4F59F39E012F5F3F4F79019D
:100840005E013FEBA31A3EEFB30A670160E0C80107
:100850000E944A03F601608371838283938361E07F
:10086000C8010E944A03F6016483758386839783D7
:10087000F8E0CF0ED11CCA14DB0441F7789430E0C5
:1008800020E0F70180809180A280B380448155816F
:1008900066817781FFEF8F169F06AF06BF0631F0A6
:1008A0004F3F8FEF58076807780719F4F801118A4E
:1008B000B1CFF90183E0F595E7958A95E1F7E00F6F
:1008C000F11F8081880F84169506A606B706F0F002
:1008D00080832F5F3F4FF8E0EF0EF11C2832310587
:1008E00081F6F801448120818181280F3327331F4D
:1008F0008281280F311D8381820F932F911D9927AB
:100900004817190699F681E0818B2BCF8160E0CFE3
:10091000EF92FF920F931F93CF93DF93E090070125
:1009200061E08E2D0E94D900F090050161E08F2DCD
:100930000E94D9000091030161E0802F0E94D9003C
:1009400010910D0161E0812F0E94D900D0910B011F
:1009500061E08D2F0E94D900C091090161E08C2FC8
:100960000E94D90060E08E2D0E948D0070E060E052
:100970008F2D0E940A01802F0E94DF0170E060E04D
:10098000812F0E940A0170E060E08D2F0E940A0111
:1009900070E060E08C2FDF91CF911F910F91FF905D
:1009A000EF900C940A01CF93DF93FC0124813581F1
:1009B0006217730788F49B01C081D1816CE270E0FB
:1009C000CE01820F931F0E943014009729F08C1BD8
:1009D0009D0BDF91CF9108958FEF9FEFFACFFC0130
:1009E00001900020E9F73197AF01481B590BBC017A
:1009F0008CE891E00C940B028F929F92AF92BF9281
:100A00000F931F93CF93DF93CDB7DEB7A1970FB6A8
:100A1000F894DEBF0FBECDBF19A2423008F44AE001
:100A20008E010F5D1F4F842E912CB12CA12CA5019E
:100A300094010E94FE11E62FB901CA01EA30F4F4D4
:100A4000E05DD801EE938D01232B242B252B79F724
:100A500090E080E0109719F0CD010E94EF04A1967C
:100A60000FB6F894DEBF0FBECDBFDF91CF911F91BF
:100A70000F91BF90AF909F908F900895E95CE1CF68
:100A8000CF92DF92EF92FF92CF93DF936B017C01C5
:100A90006DE28CE891E00E94DD02EC016627772789
:100AA000CB016C197D098E099F094AE00E94FC0464
:100AB0008C0F9D1FDF91CF91FF90EF90DF90CF9033
:100AC00008954F925F926F927F928F929F92AF9212
:100AD000BF92CF92DF92EF92FF926B017C01AC014B
:100AE0009B010E94F911882381F087E291E0FF9039
:100AF000EF90DF90CF90BF90AF909F908F907F90BE
:100B00006F905F904F900C94EF0446015701E8946A
:100B1000B7F82FEF3FEF4FE75FE7C501B4010E9441
:100B2000F91181110DC02FEF3FEF4FE75FE7C501CE
:100B3000B4010E94FA0F18161CF48BE291E0D7CF93
:100B40002FEF3FEF4FE75FE4C701B6010E94F411BA
:100B500018161CF48FE291E0CACF2FEF3FEF4FE75A
:100B60005FECC701B6010E94FA0F87FDF3CF20E0CA
:100B700030E0A901C701B6010E94FA0FB12CA12CE7
:100B800087FF0AC06DE28CE891E00E94DD025C0103
:100B9000F7FAF094F7F8F0942AE037ED43EA5BE3D4
:100BA000C701B6010E9459112B013C010E94C511D9
:100BB0006B017C010E94FF0F9B01AC01C301B201DC
:100BC0000E9458112B013C014AE0C701B6010E9466
:100BD000FC047C01EA0CFB1C6EE28CE891E00E94B4
:100BE000DD02E80EF91E20E030E040E251E4C301EE
:100BF000B2010E9460102B013C010E94C5114B0103
:100C0000B12CA12C4AE0C501B4010E94FC04E80EFD
:100C1000F91EC501B4010E94FF0F9B01AC01C30185
:100C2000B2010E94581120E030E040E251E40E94FD
:100C300060100E94C51190E080E04AE00E94FC0430
:100C40008E0D9F1DFF90EF90DF90CF90BF90AF90E3
:100C50009F908F907F906F905F904F900895FC01D0
:100C600080819181009711F00C94E1120895FC01AC
:100C700080819181009711F00C94B50F60E070E0D5
:100C8000CB010895CF93DF93DC0114962D913C9115
:100C90001597232B79F0FB01CD91DC916081718157
:100CA000CE010E945014009729F08C1B9D0BDF9100
:100CB000CF9108958FEF9FEFFACFFB0144815581CB
:100CC000FC01248135812417350778F080819181DA
:100CD000009759F0FB01608171816115710529F060
:100CE0000E94421421E0892B09F020E0822F089510
:100CF0000F931F93CF93DF93EC0188819981009725
:100D000059F02A813B812617370730F081E0DF91C7
:100D1000CF911F910F9108958B016F5F7F4F0E94BC
:100D20006A13009759F0998388831B830A832C8167
:100D30003D81232B59F7FC011082E8CF80E0E7CFFB
:100D4000EF92FF920F931F93CF93DF93EC017B0100
:100D50008A01BA010E94780628813981811114C064
:100D60002115310519F0C9010E94E112198218827A
:100D70001D821C821B821A82CE01DF91CF911F91AE
:100D80000F91FF90EF9008951D830C83B701C90167
:100D90000E943B14F1CFFC01118210821382128257
:100DA00015821482FB0101900020E9F73197AF0111
:100DB000461B570B0C94A006AF92BF92CF92DF92C6
:100DC000EF92FF920F931F93CF93DF93EC016B0190
:100DD0005A0179012417350720F48B2D5901E42E8F
:100DE000F82E6EE571E0CE010E94CB06D601149676
:100DF0000D911C91A016B10628F5E016F10608F435
:100E00008701D601ED91FC911197E00FF11FF08061
:100E100010826D917C916A0D7B1D61157105F1F059
:100E2000FB0101900020E9F73197AF01461B570BFA
:100E3000CE010E94A006F60180819181080F191F42
:100E4000D801FC92CE01DF91CF911F910F91FF90BD
:100E5000EF90DF90CF90BF90AF90089588819981F7
:100E6000009711F00E94E112198218821D821C82E3
:100E70001B821A82E0CF1F920F920FB60F9211249D
:100E80002F933F938F939F93AF93BF938091840150
:100E900090918501A0918601B091870130918301E5
:100EA00023E0230F2D3758F50196A11DB11D209386
:100EB00083018093840190938501A0938601B09370
:100EC00087018091880190918901A0918A01B09158
:100ED0008B010196A11DB11D80938801909389011A
:100EE000A0938A01B0938B01BF91AF919F918F9195
:100EF0003F912F910F900FBE0F901F90189526E8ED
:100F0000230F0296A11DB11DD2CF1F920F920FB6D3
:100F10000F9211242F933F934F935F936F937F937F
:100F20008F939F93AF93BF93EF93FF93809165014E
:100F300090916601A0916701B0916801892B8A2B7D
:100F40008B2BD1F190916001E0916101F0916201F0
:100F50008081892780838091650190916601A091AD
:100F60006701B0916801181619061A061B069CF451
:100F70008091650190916601A0916701B09168012F
:100F80000197A109B1098093650190936601A0932F
:100F90006701B0936801FF91EF91BF91AF919F916D
:100FA0008F917F916F915F914F913F912F910F9012
:100FB0000FBE0F901F901895809100010E94DF01D5
:100FC000EACF1F920F920FB60F9211242F933F93E7
:100FD0004F935F936F937F938F939F93AF93BF9341
:100FE000EF93FF938CE891E00E94BB02FF91EF9199
:100FF000BF91AF919F918F917F916F915F914F9131
:101000003F912F910F900FBE0F901F9018951F9238
:101010000F920FB60F9211242F938F939F93EF93FC
:10102000FF93E0919C01F0919D018081E091A201EC
:10103000F091A30182FD1BC090818091A5018F5F7B
:101040008F732091A601821741F0E091A501F0E095
:10105000E457FE4F958F8093A501FF91EF919F91EB
:101060008F912F910F900FBE0F901F901895808138
:10107000F4CFCF93DF93CDB7DEB762970FB6F89476
:10108000DEBF0FBECDBF789484B5826084BD84B5C9
:10109000816084BD85B5826085BD85B5816085BD73
:1010A00080916E00816080936E001092810080912B
:1010B00081008260809381008091810081608093B3
:1010C0008100809180008160809380008091B100D8
:1010D00084608093B1008091B00081608093B00003
:1010E00080917A00846080937A0080917A00826097
:1010F00080937A0080917A00816080937A00809159
:101100007A00806880937A001092C100E0919C017F
:10111000F0919D0182E08083E0919801F091990126
:101120001082E0919A01F0919B0180E180831092FE
:10113000A401E091A001F091A10186E08083E091FB
:101140009E01F0919F01808180618083E0919E01EA
:10115000F0919F01808188608083E0919E01F091F1
:101160009F01808180688083E0919E01F0919F01C2
:1011700080818F7D808383E190E00E9445128C0105
:101180008091010190910201D80115968C931597D9
:101190002BE016962C9316979C013327F901E55600
:1011A000FF4FE4911796EC931797F901E957FF4F1A
:1011B000E4911896EC9340E85EE360E070E0F8019B
:1011C000458756876787708B10937E0100937D015A
:1011D00062E00E94D9000E94D301605D77408109DE
:1011E0009109D80119966D937D938D939C931C97CB
:1011F00087E352968C930E9488048CE891E00E94C9
:101200009B02181619060CF0AFC06EE571E0CE0116
:101210000D960E94CB060E945B0297FD1EC08A308D
:101220009105D9F089831A8209891A890F5F1F4FA6
:10123000B801CE010D960E947806882361F32D85B2
:101240003E8589899A89BE016F5F7F4F820F931F08
:101250000E943B141A8B098BDECFCD84DE84C1142F
:10126000D10439F009891A8976010115110509F0AF
:10127000BAC063E371E0CE0101960E94CB06BE01C5
:101280006F5F7F4FCE010D960E945D06182FCE0135
:1012900001960E942F06112309F4DBC070E060E084
:1012A000CE010D960E94D3046C017C01BFEFEB1AB6
:1012B000FB0AB701CE010D960E94D3048C011C14C9
:1012C0001D040CF04DC0181619060CF049C096010B
:1012D00044E050E0BE01635F7F4FCE0101960E9463
:1012E000DC06CE0101960E9437064B01CE01019625
:1012F0000E942F069801A701BE01635F7F4FCE01B8
:1013000001960E94DC06CE0101960E9437062B0151
:10131000CE0101960E942F0629893A89A8014F5FC4
:101320005F4FBE01635F7F4FCE0101960E94DC06D6
:10133000CE0101960E9437066B01CE0101960E94F4
:101340002F06B40180910D010E940A01B201809123
:101350000B010E940A01B601809109010E940A0155
:10136000CE010D960E942F060E94D3012B013C0155
:1013700080917F0190918001A0918101B0918201C3
:10138000A3019201281B390B4A0B5B0BDA01C9013F
:10139000803D9740A105B10508F4D0C440927F017B
:1013A00050928001609281017092820100917D01D2
:1013B00010917E01C8010E948403882361F0D80146
:1013C00016968C918B3038F08D3008F40FC485510F
:1013D000823008F43FC4812C912C40ECA42E4FE7BE
:1013E000B42E22C475015701BFEFAB1ABB0AF70137
:1013F0008081082E000C990B0E94F10F892B91F728
:10140000015011090C0D1D1DD8018C91082E000CE6
:10141000990B0E94F10F892B31F00E151F0518F062
:1014200001501109F1CF0F5F1F4FA8014E195F093D
:101430005A8B498BCE14DF0420F4B701C6010E94F9
:101440002714ED85FE8589899A89E80FF91F108296
:1014500010CF68E371E0CE0101960E94CB06BE0179
:101460006F5F7F4FCE010D960E945D06182FCE0153
:1014700001960E942F06112309F440C070E060E03D
:10148000CE010D960E94D3048C018F3F980709F47A
:1014900067CF9C0145E050E0BE01635F7F4FCE0106
:1014A00001960E94DC06CE0101960E9437064B0190
:1014B000CE0101960E942F0629893A89A8014F5F23
:1014C0005F4FBE01635F7F4FCE0101960E94DC0635
:1014D000CE0101960E9437066B01CE0101960E9453
:1014E0002F0661E0181419040CF060E080910701E8
:1014F0000E948D00B6018091050130CF6EE371E04E
:10150000CE0101960E94CB06BE016F5F7F4FCE01D8
:101510000D960E945D06182FCE0101960E942F069F
:10152000112309F4B4C129893A8944E050E0BE018D
:10153000635F7F4FCE0101960E94DC06CE010196CB
:101540000E9437066B017C01CE0101960E942F0696
:1015500080910301909104011C141D040CF094C1AE
:1015600020910001281365C0E2E7F0E0149117FD17
:10157000F7CE61E00E94D900112319F0123009F072
:1015800030C1EE24FF2460E072E18AE790E0A70119
:1015900096010E94201249015A01DA01C9010197FE
:1015A000A109B1098F3F9105A105B10509F00CF41E
:1015B000FCC060E472E48FE090E0A70196010E9415
:1015C00020122150310941095109123009F0AEC0F1
:1015D00082E02F3F31054105510509F00CF489C423
:1015E00060E970ED83E090E0A70196010E9420126F
:1015F000215031094109510983E02F3F310541054F
:10160000510509F00CF475C468E478EE81E090E0CF
:10161000A70196010E942012215031094109510968
:101620002F3F31054105510511F00CF09DC084E0BC
:1016300060C42F3F09F094CE80930001E2E7F0E010
:1016400014911F3F09F48CCE113039F148F012305B
:1016500009F445C017FD84CE61E00E94D9008ECF09
:1016600014BC15BC24B5226024BD25B5216025BD60
:101670009C013327F901E957FF4FE491F0E0EE0FA9
:10168000FF1FE358FF4F45915491F901E556FF4F75
:10169000E491E093640110E06CCF1092800010920E
:1016A0008100209181002860209381002091810099
:1016B0002160209381009C013327F901E957FF4FF6
:1016C000E491F0E0EE0FFF1FE358FF4F4591549176
:1016D000F901E556FF4FE491E09363014ACF109280
:1016E000B0001092B1002091B00022602093B000B1
:1016F0002091B10021602093B1009C013327F901B2
:10170000E957FF4FE491F0E0EE0FFF1FE358FF4F62
:10171000459154915093620140936101F901E5565E
:10172000FF4FE491E093600112E023CF2F3F31059A
:101730004105510509F00CF452C068E478EE81E0EF
:1017400090E0A70196010E94201221503109410921
:101750005109112309F4A2C32F3F31054105510559
:1017600011F00CF0A3C363CF64E274EF80E090E06B
:10177000A70196010E942012215031094109510907
:1017800085E02F3F31054105510509F008F4B1C34B
:1017900062E17AE780E090E0A70196010E942012C2
:1017A00021503109410951098FC39C0181E0111178
:1017B000A0C395B5987F892B85BD27BD2FEF3FEF3F
:1017C000A90120936D0130936E0140936F015093F6
:1017D000700180916E00826080936E00C1CD82E0C6
:1017E000E6CFEE24FF2460E072E18AE790E0A701F3
:1017F00096010E942012215031094109510991E0BE
:1018000021153105F1E04F0751056CF068E478EEE1
:1018100081E090E0A70196010E9420122150310939
:101820004109510993E0113009F069C380918100A9
:10183000887F892B809381003093890020938800D2
:101840008FEF9FEFDC018093690190936A01A09371
:101850006B01B0936C0180916F00826080936F0088
:101860007FCD2093B3002FEF3FEFA90120936501B7
:101870003093660140936701509368018091700036
:101880008260809370006CCD0E94DF0169CD63E4BB
:1018900071E0CE0101960E94CB06BE016F5F7F4FC3
:1018A000CE010D960E945D06182FCE0101960E9472
:1018B0002F06112309F454CD18861F821A86198623
:1018C0001C861B866D857E856115710531F0498901
:1018D0005A89CE0107960E94A00663E371E0CE010B
:1018E00001960E94CB06BE016F5F7F4FCE01079627
:1018F0000E9442068C01CE0101960E942F060F3FE6
:10190000100709F461C0B801CE0107960E94D30404
:101910004C016C014FEFC41AD40AB601CE010796F0
:101920000E94D3045C013C015FEF651A750AB301A4
:10193000CE0107960E94D3047C018FEFE816F806CB
:1019400011F4EB84FC84A8014C5F5F4F9401BE014D
:10195000695F7F4FCE0101960E94DC06CE010196A1
:101960000E94370670930E0160930D01CE0101961F
:101970000E942F069501A601BE01695F7F4FCE012F
:1019800001960E94DC06CE0101960E9437067093F4
:101990000C0160930B01CE0101960E942F06970166
:1019A000A301BE01695F7F4FCE0101960E94DC0654
:1019B000CE0101960E94370670930A0160930901D7
:1019C000CE0101960E942F0668E371E0CE010196D8
:1019D0000E94CB06BE016F5F7F4FCE0107960E942B
:1019E00042068C01CE0101960E942F060F3F100780
:1019F00009F442C0B801CE0107960E94D3047C01CD
:101A00006C01AFEFCA1ADA0AB601CE0107960E943E
:101A1000D3045C01BFEFEB16FB0671F1019661F197
:101A2000A8014B5F5F4F9701BE01695F7F4FCE01F9
:101A300001960E94DC06CE0101960E943706709343
:101A4000080160930701CE0101960E942F069501BF
:101A5000A601BE01695F7F4FCE0101960E94DC06A0
:101A6000CE0101960E94370670930601609305012E
:101A7000CE0101960E942F066EE371E0CE01019621
:101A80000E94CB06BE016F5F7F4FCE0107960E947A
:101A900042068C01CE0101960E942F060F3F1007CF
:101AA00009F1B801CE0107960E94D3048F3F980731
:101AB00011F48B859C85A8014C5F5F4F9C01BE0192
:101AC000695F7F4FCE0101960E94DC06CE01019630
:101AD0000E9437067093040160930301CE010196C2
:101AE0000E942F0668E471E0CE0101960E94CB06A9
:101AF000BE016F5F7F4FCE0107960E9442068C01A8
:101B0000CE0101960E942F060F3F100709F467C00F
:101B1000B801CE0107960E94D3048F3F980711F4B5
:101B20008B859C85A8014C5F5F4F9C01BE01695F5E
:101B30007F4FCE0101960E94DC06CE0101960E94E5
:101B40003706D62E062F172F10930201009301019E
:101B5000CE0101960E942F0680917D0190917E0119
:101B6000009711F00E94E11283E190E00E9445127B
:101B70007C01DC011596DC9215978BE016968C9310
:101B800016971127F801E556FF4FE4911796EC934D
:101B9000179709571F4FF801049118960C9318973F
:101BA00020E83EE340E050E01D962D933D934D9399
:101BB0005C935097F0927E01E0927D0162E08D2D62
:101BC0000E94D9000E94D301605D7740810991098C
:101BD000F701618772878387948787E3828B0E94EE
:101BE0008804CE0107960E942F06BACBF8016181C6
:101BF00070E090E080E00E9401102DEC3CEC4CEC99
:101C00005DE30E9460106B017C01D8016C9170E073
:101C100090E080E00E9401109B01AC01C701B60179
:101C20000E9459114B015C01C8010E948403882362
:101C300009F484C0D80116968C918C3009F4E9C05F
:101C4000D0F48B3081F1C12CD12C20ECE22E2FE787
:101C5000F22E54C0F80160817181762767277627BC
:101C600090E080E00E94FF0F2DEC3CEC4CEC5DE33B
:101C70000E946010D7CF8551823028F7F80132805A
:101C8000632D70E0762F662766277F778381682B28
:101C900090E080E00E94FF0F2DEC3CEC4CEC5DE30B
:101CA0000E946010D3C0F801628170E090E080E093
:101CB0000E94FF0F6B017C01D80113961C9117FF46
:101CC0000AC0AC019B0160E070E080E89FEB0E94DD
:101CD00058116B017C011F70612F70E090E080E073
:101CE0000E9401102DEC3CEC4CEC5DE30E94601076
:101CF000A70196010E9459116B017C01A501940175
:101D0000C501B4010E94F911811118C0A701960103
:101D1000C701B6010E94F911811110C080927901AA
:101D200090927A01A0927B01B0927C01C0927501E1
:101D3000D0927601E0927701F09278018091710162
:101D400090917201A0917301B0917401A30192016D
:101D5000281B390B4A0B5B0BDA01C901883C910542
:101D6000A105B10508F448C040927101509272017A
:101D700060927301709274018EE00E9467017C0191
:101D80008FE00E9467018C018DE491E00E94EF04D6
:101D90006091790170917A0180917B0190917C0131
:101DA0000E94610580E591E00E94EF046091750159
:101DB0007091760180917701909178010E94610580
:101DC00084E591E00E94EF04B701FF0C880B990BAA
:101DD00097FF45C00E94400588E591E00E94EF040E
:101DE000B801110F880B990B97FF3DC00E94400569
:101DF0008CE591E00E94EF0480E090E0892B09F4EB
:101E0000FCC90E94A702882309F4F7C90E940000B8
:101E1000F4C9F8013280632D70E090E080E00E9408
:101E2000FF0F6B017C01D80113966C916F7070E00D
:101E300090E080E00E9401102DEC3CEC4CEC5DE366
:101E40000E946010A70196010E9459116B017C014C
:101E500037FE54CFF7FAF094F7F8F0944FCF4AE0FA
:101E60000E94FC04B9CF4AE00E94FC04C1CF84E088
:101E70002F3F31054105510509F008F49ACC9AE04D
:101E8000B594A794979487949A95D1F7A501940156
:101E9000215031094109510985E08BCC83E02F3F66
:101EA00031054105510509F00CF483CC62E17AE774
:101EB00080E090E0A70196010E9420122150310994
:101EC00041095109112399F286E02F3F310541055F
:101ED000510579F070F08AE0B594A79497948794AF
:101EE0008A95D1F7A5019401215031094109510981
:101EF00087E09091B100987F892B8093B1001130D9
:101F000009F49ACC123009F4ACCC111129CA55CC81
:101F1000ECE8F1E01382128288EE93E0A0E0B0E0FA
:101F200084839583A683B78389E191E0918380833D
:101F300085EC90E09587848784EC90E0978786878E
:101F400080EC90E0918B808B81EC90E0938B828B86
:101F500082EC90E0958B848B86EC90E0978B868B5F
:101F6000118E128E138E148E08951F93FC019927E3
:101F70008827BC01E89411911032E9F3193010F070
:101F80001E30C8F31B3251F01D3249F4689406C06C
:101F90000E94DC0F610F711D811D911D1191105365
:101FA0001A30B0F33EF490958095709561957F4F0F
:101FB0008F4F9F4F1F910895592F482F372F262F4E
:101FC000660F771F881F991F660F771F881F991F3D
:101FD000620F731F841F951F660F771F881F991F3D
:101FE000089591110C94CD10803219F089508550CC
:101FF000C8F708950E943C1008F481E00895E89421
:1020000009C097FB3EF490958095709561957F4F40
:102010008F4F9F4F9923A9F0F92F96E9BB279395EE
:10202000F695879577956795B795F111F8CFFAF4FE
:10203000BB0F11F460FF1BC06F5F7F4F8F4F9F4F2F
:1020400016C0882311F096E911C0772321F09EE88D
:10205000872F762F05C0662371F096E8862F70E0F3
:1020600060E02AF09A95660F771F881FDAF7880FCD
:102070009695879597F90895990F0008550FAA0B23
:10208000E0E8FEEF16161706E807F907C0F012168B
:102090001306E407F50798F0621B730B840B950B8E
:1020A00039F40A2661F0232B242B252B21F40895E3
:1020B0000A2609F4A140A6958FEF811D811D089580
:1020C0000E9473100C94E7100E94D91038F00E94FF
:1020D000E01020F0952311F00C94D0100C94D61041
:1020E00011240C941B110E94F81070F3959FC1F3FA
:1020F000950F50E0551F629FF001729FBB27F00DB6
:10210000B11D639FAA27F00DB11DAA1F649F66270A
:10211000B00DA11D661F829F2227B00DA11D621F59
:10212000739FB00DA11D621F839FA00D611D221F13
:10213000749F3327A00D611D231F849F600D211DF7
:10214000822F762F6A2F11249F5750409AF0F1F07A
:1021500088234AF0EE0FFF1FBB1F661F771F881FE3
:1021600091505040A9F79E3F510580F00C94D0103B
:102170000C941B115F3FE4F3983ED4F3869577955A
:102180006795B795F795E7959F5FC1F7FE2B880F89
:10219000911D9695879597F9089599278827089511
:1021A00097F99F6780E870E060E008959FEF80EC0A
:1021B000089500240A9416161706180609060895AD
:1021C00000240A9412161306140605060895092E13
:1021D0000394000C11F4882352F0BB0F40F4BF2B82
:1021E00011F460FF04C06F5F7F4F8F4F9F4F0895C2
:1021F00057FD9058440F551F59F05F3F71F04795B8
:10220000880F97FB991F61F09F3F79F0879508959C
:10221000121613061406551FF2CF4695F1DF08C0BB
:10222000161617061806991FF1CF869571056105D8
:1022300008940895E894BB2766277727CB0197F980
:1022400008952F923F924F925F926F927F928F925A
:102250009F92AF92BF92CF92DF92EF92FF920F9335
:102260001F93CF93DF93CDB7DEB7CA1BDB0B0FB63F
:10227000F894DEBF0FBECDBF09942A8839884888FC
:102280005F846E847D848C849B84AA84B984C88492
:10229000DF80EE80FD800C811B81AA81B981CE0F89
:1022A000D11D0FB6F894DEBF0FBECDBFED0108956E
:1022B0005058BB27AA270E9470110C94E7100E9467
:1022C000D91038F00E94E01020F039F49F3F19F443
:1022D00026F40C94D6100EF4E095E7FB0C94D01085
:1022E000E92F0E94F81058F3BA17620773078407A2
:1022F000950720F079F4A6F50C941A110EF4E095E8
:102300000B2EBA2FA02D0B01B90190010C01CA01AF
:10231000A0011124FF27591B99F0593F50F4503E5A
:1023200068F11A16F040A22F232F342F4427585F4C
:10233000F3CF469537952795A795F0405395C9F764
:102340007EF41F16BA0B620B730B840BBAF091501C
:10235000A1F0FF0FBB1F661F771F881FC2F70EC0BB
:10236000BA0F621F731F841F48F48795779567958E
:10237000B795F7959E3F08F0B0CF9395880F08F07A
:102380009927EE0F9795879508950E94001188F080
:102390009F5798F0B92F9927B751B0F0E1F0660F29
:1023A000771F881F991F1AF0BA95C9F714C0B1306A
:1023B00091F00E941A11B1E008950C941A11672F40
:1023C000782F8827B85F39F0B93FCCF38695779599
:1023D0006795B395D9F73EF4909580957095619582
:1023E0007F4F8F4F9F4F08950E943C1008F48FEF4E
:1023F00008950E943C10880B990B0895A1E21A2EB3
:10240000AA1BBB1BFD010DC0AA1FBB1FEE1FFF1F98
:10241000A217B307E407F50720F0A21BB30BE40BE8
:10242000F50B661F771F881F991F1A9469F760952F
:102430007095809590959B01AC01BD01CF010895E9
:10244000052E97FB1EF400940E94371257FD07D00B
:102450000E94FE1107FC03D04EF40C9437125095E5
:102460004095309521953F4F4F4F5F4F0895909580
:102470008095709561957F4F8F4F9F4F0895EE0F18
:10248000FF1F0590F491E02D09940F931F93CF93B4
:10249000DF938230910510F482E090E0E0912B020E
:1024A000F0912C0230E020E0B0E0A0E0309799F409
:1024B0002115310509F44AC0281B390B2430310598
:1024C000D8F58A819B816115710589F1FB019383A0
:1024D0008283FE0111C0408151810281138148171E
:1024E0005907E0F04817590799F4109761F01296D0
:1024F0000C93129713961C933296CF01DF91CF91D4
:102500001F910F91089500932B0210932C02F4CF8A
:102510002115310551F04217530738F0A901DB01AD
:102520009A01BD01DF01F801C1CFEF01F9CF90930E
:102530002C0280932B02CDCFFE01E20FF31F81937B
:1025400091932250310939832883D7CF20912902D2
:1025500030912A02232B41F4209111013091120174
:1025600030932A022093290220910F01309110010B
:102570002115310541F42DB73EB74091130150911B
:102580001401241B350BE0912902F0912A02E21775
:10259000F307A0F42E1B3F0B2817390778F0AC0186
:1025A0004E5F5F4F2417350748F04E0F5F1F509363
:1025B0002A0240932902819391939FCFF0E0E0E0BB
:1025C0009CCFCF93DF930097E9F0FC013297138201
:1025D0001282A0912B02B0912C02ED0130E020E09C
:1025E0001097A1F420813181820F931F209129023D
:1025F00030912A022817390709F061C0F0932A02A6
:10260000E0932902DF91CF910895EA01CE17DF0709
:10261000E8F54A815B819E0141155105B1F7E90159
:10262000FB83EA8349915991C40FD51FEC17FD072D
:1026300061F4808191810296840F951FE90199834D
:102640008883828193819B838A83F0E0E0E0129605
:102650008D919C9113970097B9F52D913C9111970D
:10266000CD010296820F931F2091290230912A02F8
:102670002817390739F6309751F510922C0210922D
:102680002B02B0932A02A0932902BCCFD383C2832A
:1026900040815181840F951FC817D90761F44E5F9F
:1026A0005F4F88819981480F591F518340838A81E8
:1026B0009B81938382832115310509F0B0CFF0937C
:1026C0002C02E0932B029ECFFD01DC01C0CF1382D0
:1026D0001282D7CFB0E0A0E0E0E7F3E10C94231141
:1026E0008C01009751F4CB010E9445128C01C80166
:1026F000CDB7DEB7E0E10C943F11FC01E60FF71F08
:102700009C0122503109E217F30708F49DC0D9015A
:10271000CD91DC911197C617D70798F0C530D10538
:1027200030F3CE0104978617970708F3C61BD70B23
:102730002297C193D1936D937C93CF010E94E112B4
:10274000D6CF5B01AC1ABD0A4C018C0E9D1EA09128
:102750002B02B0912C02512C412CF12CE12C109722
:1027600031F58091290290912A028815990509F086
:102770005CC04616570608F058C080910F01909132
:102780001001009741F48DB79EB74091130150910D
:102790001401841B950BE817F90708F055C0F09356
:1027A0002A02E0932902F90171836083A0CF8D9101
:1027B0009C91119712966C90129713967C90139798
:1027C000A815B90559F56C0142E0C40ED11CCA1414
:1027D000DB0420F1AC014A195B09DA011296159766
:1027E00080F06282738251834083D9016D937C9320
:1027F000E114F10471F0D7011396FC93EE93129754
:1028000076CF22968C0F9D1FF90191838083F3016F
:10281000EFCFF0932C02E0932B0269CF48165906B4
:1028200008F42C017D01D3019ACFCB010E944512FF
:102830007C01009749F0AE01B8010E942714C8013D
:102840000E94E112870153CF10E000E050CFFB015E
:10285000DC0102C001900D9241505040D8F708951C
:10286000FC018191861721F08823D9F799270895D3
:102870003197CF010895FB01DC0101900D920020FA
:10288000E1F70895FB01DC014150504030F08D919B
:102890000190801919F40020B9F7881B990B08954D
:1028A000FB0151915523A9F0BF01DC014D91451762
:1028B0004111E1F759F4CD010190002049F04D910B
:1028C00040154111C9F3FB014111EFCF81E090E0C8
:0828D00001970895F894FFCF71
:1028D800FF02000600050007000B000A00090000BF
:1028E800002D02800000000000DD020B0238022AE1
:1028F800039B0247028D026E616E00696E66006F6F
:102908007666005247423A0050554D503A004255BB
:102918005A3A004346473A004448543A00483A0075
:102928002C543A002C4C3A002C533A000D0A000063
:00000001FF
