:020000040000FA
:100000000C9463000C948B000C948B000C948B006C
:100010000C948B000C948B000C948B000C940008B7
:100020000C948B000C948B000C948B000C948B0024
:100030000C948B000C948B000C948B000C948B0014
:100040000C94B6070C948B000C9482080C945C08FA
:100050000C948B000C948B000C948B000C948B00F4
:100060000C948B000C948B000200000000230026EF
:1000700000290000000000240027002A00000000E2
:1000800000250028002B00040404040404040402D6
:100090000202020202030303030303010204081025
:1000A00020408001020408102001020408102000F2
:1000B0000000080002010000030407000000000027
:1000C000000000001E1011241FBECFEFD8E0DEBFDD
:1000D000CDBF22E0A0E7B1E001C01D92AD33B20771
:1000E000E1F711E0A0E0B1E0E6E1FAE202C005903C
:1000F0000D92A037B107D9F710E0C3E6D0E004C0F5
:100100002197FE010E94D512C236D107C9F70E947D
:10011000B4080C9409150C940000833081F028F485
:10012000813099F08230A9F008958730A9F08830A5
:10013000C9F08430B1F4809180008F7D03C080913C
:1001400080008F7780938000089584B58F7784BD79
:10015000089584B58F7DFBCF8091B0008F77809319
:10016000B00008958091B0008F7DF9CF1F93CF9399
:10017000DF93282F30E0F901E155FF4F8491F90119
:10018000E556FF4FD491F901E957FF4FC491CC23B5
:10019000A9F0162F81110E948D00EC2FF0E0EE0FD8
:1001A000FF1FE358FF4FA591B4918FB7F894EC91DE
:1001B000111108C0D095DE23DC938FBFDF91CF9162
:1001C0001F910895DE2BF8CFCF93DF9390E0FC01D1
:1001D000E556FF4F249189579F4FFC018491882356
:1001E000C9F090E0880F991FFC01ED58FF4FA591D1
:1001F000B491FC01E358FF4FC591D49161110DC03A
:100200009FB7F8948C91209582238C938881282322
:1002100028839FBFDF91CF910895623051F49FB73B
:10022000F8943C91822F809583238C93E8812E2B28
:10023000EFCF8FB7F894EC912E2B2C938FBFEACF92
:100240001F93CF93DF93182FEB0161E00E94E4002E
:10025000209739F460E0812FDF91CF911F910C94AA
:10026000B600CF3FD10511F461E0F5CFE12FF0E00A
:10027000E155FF4FE491E33031F140F4E130B1F06A
:10028000E230E1F0C038D1057CF7E4CFE73029F166
:10029000E83059F1E430B1F78091800080628093BA
:1002A0008000D0938B00C0938A0004C084B580681E
:1002B00084BDC7BDDF91CF911F91089584B5806241
:1002C00084BDC8BDF7CF8091800080688093800096
:1002D000D0938900C0938800EDCF8091B0008068F2
:1002E0008093B000C093B300E5CF8091B0008062EE
:1002F0008093B000C093B400DDCF8E3008F08E50F4
:100300008770806480937C0080917A008064809301
:100310007A0080917A0086FDFCCF809178009091E0
:10032000790008953FB7F8948091980190919901D0
:10033000A0919A01B0919B0126B5A89B05C02F3FC3
:1003400019F00196A11DB11D3FBFBA2FA92F982FFB
:100350008827BC01CD01620F711D811D911D42E0F6
:10036000660F771F881F991F4A95D1F708958F92BE
:100370009F92AF92BF92CF92DF92EF92FF924B018A
:100380005C010E9492016B017C010E9492016C1938
:100390007D098E099F09683E734081059105A8F388
:1003A00021E0821A9108A108B10888EEC80E83E006
:1003B000D81EE11CF11C81149104A104B10429F799
:1003C000FF90EF90DF90CF90BF90AF909F908F9075
:1003D00008952FB7F89460919401709195018091E0
:1003E0009601909197012FBF089590910001891374
:1003F0000BC0E8E6F0E0E4919FEF90930001E1305C
:1004000049F028F0E23061F060E00C94B600109200
:100410006E00FACF90916F009D7F90936F00F4CFA4
:10042000909170009D7F9093700091E09093B00048
:100430009091B100987F94609093B1001092B300B6
:10044000E3CFAF92BF92CF92DF92EF92FF920F93E2
:100450001F93CF93DF936C017B018B01040F151F5A
:10046000EB015E01AE18BF08C017D10759F06991C2
:10047000D601ED91FC910190F081E02DC601099526
:10048000892B79F7C501DF91CF911F910F91FF90D3
:10049000EF90DF90CF90BF90AF900895FC01538D07
:1004A000448D252F30E0842F90E0821B930B54174E
:1004B00010F0CF96089501970895FC01918D828DDB
:1004C000981761F0A28DAE0FBF2FB11D5D968C9174
:1004D000928D9F5F9F73928F90E008958FEF9FEFB3
:1004E00008950F931F930E94E9016093A4017093F4
:1004F000A5018093A6019093A7018CE991E00E9449
:100500005D0297FF1DC00E94E9010091A4011091B6
:10051000A5012091A6013091A701601B710B820BF0
:10052000930B0091A0011091A1012091A2013091A3
:10053000A3016017710782079307F8F28FEF9FEF0F
:100540001F910F910895FC01918D828D981731F0C4
:10055000828DE80FF11D858D90E008958FEF9FEF5C
:100560000895FC01918D228D892F90E0805C9F4F32
:10057000821B91098F73992708958CE991E00E945D
:10058000B10221E0892B09F420E0822F089580E058
:1005900090E0892B29F00E94BD0281110C9400008B
:1005A0000895FC01A48DA80FB92FB11DA35ABF4F08
:1005B0002C91848D90E001968F739927848FA68962
:1005C000B7892C93A089B1898C91837080648C93B6
:1005D000938D848D981306C00288F389E02D808165
:1005E0008F7D80830895EF92FF920F931F93CF9397
:1005F000DF93EC0181E0888F9B8D8C8D98131AC05E
:10060000E889F989808185FF15C09FB7F894EE8944
:10061000FF896083E889F9898081837080648083A1
:100620009FBF81E090E0DF91CF911F910F91FF90EC
:10063000EF900895F62E0B8D10E00F5F1F4F0F7394
:100640001127E02E8C8D8E110CC00FB607FCFACF4F
:10065000E889F989808185FFF5CFCE010E94D1021A
:10066000F1CFEB8DEC0FFD2FF11DE35AFF4FF08220
:100670009FB7F8940B8FEA89FB8980818062CFCF86
:10068000CF93DF93EC01888D8823B9F0AA89BB89C9
:10069000E889F9898C9185FD03C0808186FD0DC0B4
:1006A0000FB607FCF7CF8C9185FFF2CF808185FFD5
:1006B000EDCFCE010E94D102E9CFDF91CF91089515
:1006C000CF92DF92EF92FF92CF93DF93DC011796E8
:1006D000CC911797D0E06111DC2F18962C911897C8
:1006E00030E0220F331F27593F4F50E040E0F9011F
:1006F00085919491FC01F080BA0190E080E0EF2DAB
:10070000EC23ED1310C04F5F5F4F1D96CD90DD9031
:10071000ED90FC9050976C157D058E059F0538F384
:100720006FEF7FEFCB01DF91CF91FF90EF90DF90E4
:10073000CF9008958F929F92AF92BF92CF92DF9207
:10074000EF92FF920F931F93CF93DF93CDB7DEB756
:10075000C054D1400FB6F894DEBF0FBECDBF8C01A0
:100760000E94E901F801C184D284E384F4849B01EE
:10077000AC012C193D094E095F0969017A0130ED80
:10078000C31637E0D306E104F104A8F48189C05C04
:10079000DE4F0FB6F894DEBF0FBECDBFDF91CF9115
:1007A0001F910F91FF90EF90DF90CF90BF90AF908F
:1007B0009F908F90089561877287838794871482B2
:1007C000138212821182108262E085810E94E4000D
:1007D00061E070E080E090E00E94B70161E0F80124
:1007E00085810E94E40060E0F80185810E94B600E6
:1007F000F80186818551823028F58BE291E10197DD
:10080000F1F762E0F80185810E94E400F801828935
:1008100090E08230910538F0880F991F880F991F5A
:1008200005970197F1F7F89460E0C8010E94600312
:100830006F3F7F4F8F4F9F4F61F4F801118A78947B
:1008400080E0A5CF64E170E080E090E00E94B70115
:10085000D8CF61E0C8010E9460036F3F7F4F8F4F88
:100860009F4F59F39E012F5F3F4F79015E013FEB90
:10087000A31A3EEFB30A670160E0C8010E9460035B
:10088000F601608371838283938361E0C8010E94D3
:100890006003F6016483758386839783F8E0CF0E47
:1008A000D11CCA14DB0441F7789430E020E0F70152
:1008B00080809180A280B380448155816681778158
:1008C000FFEF8F169F06AF06BF0631F04F3F8FEF49
:1008D00058076807780719F4F801118AB1CFF901B0
:1008E00083E0F595E7958A95E1F7E00FF11F8081A8
:1008F000880F84169506A606B706F0F080832F5F52
:100900003F4FF8E0EF0EF11C2832310581F6F80177
:10091000448120818181280F3327331F8281280F52
:10092000311D8381820F932F911D99274817190636
:1009300099F681E0818B2BCF8160E0CFEF92FF921F
:100940000F931F93CF93DF93E090080161E08E2D0A
:100950000E94E400F090060161E08F2D0E94E40007
:100960000091040161E0802F0E94E40010910E01CB
:1009700061E0812F0E94E400D0910C0161E08D2F95
:100980000E94E400C0910A0161E08C2F0E94E40003
:1009900080910301882321F060E08EE00E94E40052
:1009A00060E08E2D0E94B60070E060E08F2D0E9406
:1009B0002001802F0E94F50170E060E0812F0E94ED
:1009C000200170E060E08D2F0E94200170E060E067
:1009D0008C2FDF91CF911F910F91FF90EF900C948E
:1009E0002001CF93DF93FC012481358162177307C7
:1009F00088F49B01C081D1816CE270E0CE01820F4E
:100A0000931F0E94C614009729F08C1B9D0BDF9149
:100A1000CF9108958FEF9FEFFACFFC010190002056
:100A2000E9F73197AF01481B590BBC018CE991E004
:100A30000C9421028F929F92AF92BF920F931F93BB
:100A4000CF93DF93CDB7DEB7A1970FB6F894DEBF93
:100A50000FBECDBF19A2423008F44AE08E010F5DEF
:100A60001F4F842E912CB12CA12CA50194010E9422
:100A70009412E62FB901CA01EA30F4F4E05DD8011E
:100A8000EE938D01232B242B252B79F790E080E02A
:100A9000109719F0CD010E940D05A1960FB6F8949C
:100AA000DEBF0FBECDBFDF91CF911F910F91BF90E1
:100AB000AF909F908F900895E95CE1CFCF92DF9245
:100AC000EF92FF92CF93DF936B017C016DE28CE993
:100AD00091E00E94F302EC0166277727CB016C19A5
:100AE0007D098E099F094AE00E941A058C0F9D1FFF
:100AF000DF91CF91FF90EF90DF90CF9008954F92CC
:100B00005F926F927F928F929F92AF92BF92CF929D
:100B1000DF92EF92FF926B017C01AC019B010E947E
:100B20008F12882381F088E291E0FF90EF90DF90B0
:100B3000CF90BF90AF909F908F907F906F905F907D
:100B40004F900C940D0546015701E894B7F82FEF2C
:100B50003FEF4FE75FE7C501B4010E948F1281119B
:100B60000DC02FEF3FEF4FE75FE7C501B4010E94D3
:100B7000901018161CF48CE291E0D7CF2FEF3FEFC6
:100B80004FE75FE4C701B6010E948A1218161CF4F1
:100B900080E391E0CACF2FEF3FEF4FE75FECC70153
:100BA000B6010E94901087FDF3CF20E030E0A9014C
:100BB000C701B6010E949010B12CA12C87FF0AC07A
:100BC0006DE28CE991E00E94F3025C01F7FAF09487
:100BD000F7F8F0942AE037ED43EA5BE3C701B6018A
:100BE0000E94EF112B013C010E945B126B017C0102
:100BF0000E9495109B01AC01C301B2010E94EE114D
:100C00002B013C014AE0C701B6010E941A057C0194
:100C1000EA0CFB1C6EE28CE991E00E94F302E80E04
:100C2000F91E20E030E040E251E4C301B2010E942D
:100C3000F6102B013C010E945B124B01B12CA12C40
:100C40004AE0C501B4010E941A05E80EF91EC5016B
:100C5000B4010E9495109B01AC01C301B2010E9436
:100C6000EE1120E030E040E251E40E94F6100E94D4
:100C70005B1290E080E04AE00E941A058E0D9F1DF5
:100C8000FF90EF90DF90CF90BF90AF909F908F90AC
:100C90007F906F905F904F900895FC0180819181CB
:100CA000009711F00C9477130895FC0180819181D5
:100CB000009711F00C944B1060E070E0CB010895A8
:100CC000AF92BF92CF92DF92EF92FF920F931F935A
:100CD000CF93DF93DC01CD90DC901197C114D10448
:100CE00039F01496CD91DC918C017601209761F456
:100CF000DF91CF911F910F91FF90EF90DF90CF90F8
:100D0000BF90AF90089575015701BFEFAB1ABB0AB2
:100D1000F7018081082E000C990B0E948710892B07
:100D200091F72197CC0DDD1D8881082E000C990BC1
:100D30000E948710892B29F0CE15DF0510F021972E
:100D4000F3CFAE014F5F5F4F4E195F09D801159683
:100D50005C934E931497CE14DF0420F4B701C601C0
:100D60000E94BD14D801ED91FC91119714968D91BC
:100D70009C91E80FF91F1082BBCFCF93DF93DC016A
:100D800014962D913C911597232B79F0FB01CD9171
:100D9000DC9160817181CE010E94EF14009729F0EF
:100DA0008C1B9D0BDF91CF9108958FEF9FEFFACFB2
:100DB000FB0144815581FC012481358124173507CD
:100DC00078F080819181009759F0FB0160817181F9
:100DD0006115710529F00E94E11421E0892B09F0C9
:100DE00020E0822F08950F931F93CF93DF93EC01A0
:100DF00088819981009759F02A813B81261737070E
:100E000030F081E0DF91CF911F910F9108958B0118
:100E10006F5F7F4F0E940014009759F09983888379
:100E20001B830A832C813D81232B59F7FC011082FF
:100E3000E8CF80E0E7CFEF92FF920F931F93CF931D
:100E4000DF93EC017B018A01BA010E94F30628813D
:100E50003981811114C02115310519F0C9010E9491
:100E60007713198218821D821C821B821A82CE017E
:100E7000DF91CF911F910F91FF90EF9008951D8307
:100E80000C83B701C9010E94DA14F1CFFC01118271
:100E900010821382128215821482FB0101900020BD
:100EA000E9F73197AF01461B570B0C941B07AF9224
:100EB000BF92CF92DF92EF92FF920F931F93CF9347
:100EC000DF93EC016B015A0179012417350720F4F7
:100ED0008B2D5901E42EF82E6EE671E0CE010E94B2
:100EE0004607D60114960D911C91A016B10628F55F
:100EF000E016F10608F48701D601ED91FC911197F7
:100F0000E00FF11FF08010826D917C916A0D7B1DC6
:100F100061157105F1F0FB0101900020E9F73197AF
:100F2000AF01461B570BCE010E941B07F6018081C3
:100F30009181080F191FD801FC92CE01DF91CF914A
:100F40001F910F91FF90EF90DF90CF90BF90AF90E7
:100F5000089588819981009711F00E947713198272
:100F600018821D821C821B821A82E0CF1F920F9270
:100F70000FB60F9211242F933F938F939F93AF93AC
:100F8000BF938091940190919501A0919601B091A9
:100F900097013091930123E0230F2D3758F50196E7
:100FA000A11DB11D2093930180939401909395010D
:100FB000A0939601B0939701809198019091990127
:100FC000A0919A01B0919B010196A11DB11D809342
:100FD000980190939901A0939A01B0939B01BF91BE
:100FE000AF919F918F913F912F910F900FBE0F90D6
:100FF0001F90189526E8230F0296A11DB11DD2CF90
:101000001F920F920FB60F9211242F933F934F937D
:101010005F936F937F938F939F93AF93BF93EF9360
:10102000FF938091750190917601A0917701B09125
:101030007801892B8A2B8B2BD1F190917001E09153
:101040007101F091720180818927808380917501FF
:1010500090917601A0917701B09178011816190648
:101060001A061B069CF48091750190917601A0915F
:101070007701B09178010197A109B10980937501B9
:1010800090937601A0937701B0937801FF91EF914F
:10109000BF91AF919F918F917F916F915F914F9190
:1010A0003F912F910F900FBE0F901F901895809138
:1010B00000010E94F501EACF1F920F920FB60F9226
:1010C00011242F933F934F935F936F937F938F934D
:1010D0009F93AF93BF93EF93FF938CE991E00E94AE
:1010E000D102FF91EF91BF91AF919F918F917F912D
:1010F0006F915F914F913F912F910F900FBE0F9085
:101100001F9018951F920F920FB60F9211242F93D4
:101110008F939F93EF93FF93E091AC01F091AD011A
:101120008081E091B201F091B30182FD1BC09081FA
:101130008091B5018F5F8F732091B601821741F0C6
:10114000E091B501F0E0E456FE4F958F8093B50134
:10115000FF91EF919F918F912F910F900FBE0F9064
:101160001F9018958081F4CFCF93DF93CDB7DEB772
:1011700062970FB6F894DEBF0FBECDBF789484B5EA
:10118000826084BD84B5816084BD85B5826085BD83
:1011900085B5816085BD80916E00816080936E0011
:1011A0001092810080918100826080938100809103
:1011B00081008160809381008091800081608093B4
:1011C00080008091B10084608093B1008091B00074
:1011D00081608093B00080917A00846080937A006F
:1011E00080917A00826080937A0080917A00816099
:1011F00080937A0080917A00806880937A001092C0
:10120000C100E091AC01F091AD0182E08083E091FA
:10121000A801F091A9011082E091AA01F091AB011F
:1012200080E180831092B401E091B001F091B101AE
:1012300086E08083E091AE01F091AF018081806112
:101240008083E091AE01F091AF018081886080835E
:10125000E091AE01F091AF01808180688083E091E0
:10126000AE01F091AF0180818F7D808383E190E0BA
:101270000E94DB128C018091010190910201D80142
:1012800015968C9315972BE016962C9316979C0128
:101290003327F901E556FF4FE4911796EC93179722
:1012A000F901E957FF4FE4911896EC9340E85EE3AB
:1012B00060E070E0F801458756876787708B109370
:1012C0008E0100938D0162E00E94E4000E94E9011A
:1012D000605D774081099109D80119966D937D93DE
:1012E0008D939C931C9787E352968C930E949E0447
:1012F0008CE991E00E94B102181619060CF0A7C003
:101300006EE671E0CE010D960E9446070E947102C2
:1013100097FD1EC08A309105D9F089831A82098908
:101320001A890F5F1F4FB801CE010D960E94F30678
:10133000882361F32D853E8589899A89BE016F5F77
:101340007F4F820F931F0E94DA141A8B098BDECF16
:10135000CE010D960E94600664E371E0CE01019615
:101360000E944607BE016F5F7F4FCE010D960E941F
:10137000D806182FCE0101960E944D06112309F4BC
:10138000A4C070E060E0CE010D960E94F1046C01F3
:101390007C01BFEFEB1AFB0AB701CE010D960E944C
:1013A000F1048C011C141D040CF04DC01816190614
:1013B0000CF049C0960144E050E0BE01635F7F4FEE
:1013C000CE0101960E945707CE0101960E94550654
:1013D0004B01CE0101960E944D069801A701BE0166
:1013E000635F7F4FCE0101960E945707CE010196A1
:1013F0000E9455062B01CE0101960E944D062989B7
:101400003A89A8014F5F5F4FBE01635F7F4FCE01F6
:1014100001960E945707CE0101960E9455066B0166
:10142000CE0101960E944D06B40180910E010E94EA
:101430002001B20180910C010E942001B60180912F
:101440000A010E942001CE010D960E944D060E94C5
:10145000E9012B013C0180918F0190919001A091B5
:101460009101B0919201A3019201281B390B4A0B03
:101470005B0BDA01C901803D9740A105B10508F475
:101480001FC540928F01509290016092910170921D
:10149000920100918D0110918E01C8010E949A0362
:1014A000882361F0D80116968C918B3038F08D30FE
:1014B00008F45EC48551823008F48EC4812C912CCE
:1014C00050ECA52E5FE7B52E71C469E371E0CE0143
:1014D00001960E944607BE016F5F7F4FCE010D96B9
:1014E0000E94D806182FCE0101960E944D061123A6
:1014F00009F440C070E060E0CE010D960E94F10456
:101500008C018F3F980709F49ECF9C0145E050E085
:10151000BE01635F7F4FCE0101960E945707CE0147
:1015200001960E9455064B01CE0101960E944D0680
:1015300029893A89A8014F5F5F4FBE01635F7F4FE2
:10154000CE0101960E945707CE0101960E945506D2
:101550006B01CE0101960E944D0661E0181419043A
:101560000CF060E0809108010E94B600B601809105
:10157000060167CF6FE371E0CE0101960E94460736
:10158000BE016F5F7F4FCE010D960E94D806582E88
:10159000CE0101960E944D06552009F4F5C1298916
:1015A0003A8944E050E0BE01635F7F4FCE0101966F
:1015B0000E945707CE0101960E9455066B017C01DF
:1015C000CE0101960E944D06809104019091050183
:1015D0001C141D040CF0D5C1209100012813A6C0D5
:1015E000E8E6F0E0149117FD2ECF61E00E94E400E0
:1015F000112319F0123009F071C1EE24FF2460E0CC
:1016000072E18AE790E0A70196010E94B6124901B3
:101610005A01DA01C9010197A109B1098F3F91056A
:10162000A105B10509F00CF43DC160E472E48FE05E
:1016300090E0A70196010E94B6122150310941099C
:101640005109123009F0EFC082E02F3F310541050A
:10165000510509F00CF45BC060E970ED83E090E0A7
:10166000A70196010E94B612215031094109510982
:1016700083E02F3F31054105510509F00CF447C0C7
:1016800068E478EE81E090E0A70196010E94B6122E
:10169000215031094109510984E02F3F31054105AD
:1016A0005105A9F1A4F164E274EF80E090E0A70194
:1016B00096010E94B612215031094109510985E075
:1016C0002F3F31054105510511F108F162E17AE73B
:1016D00080E090E0A70196010E94B61221503109E6
:1016E0004109510986E02F3F31054105510579F047
:1016F00070F09AE0B594A794979487949A95D1F74F
:10170000A5019401215031094109510987E09091C7
:10171000B100987F892B8093B100113009F409C181
:10172000123009F41BC111118ECEC4C02F3F09F035
:101730008ACE80930001E8E6F0E014911F3F09F49F
:1017400082CE113039F148F0123009F445C017FD4E
:101750007ACE61E00E94E4004DCF14BC15BC24B5E4
:10176000226024BD25B5216025BD9C013327F901E8
:10177000E957FF4FE491F0E0EE0FFF1FE358FF4FF2
:1017800045915491F901E556FF4FE491E0937401BE
:1017900010E02BCF109280001092810020918100E8
:1017A0002860209381002091810021602093810096
:1017B0009C013327F901E957FF4FE491F0E0EE0F68
:1017C000FF1FE358FF4F45915491F901E556FF4F34
:1017D000E491E093730109CF1092B0001092B10030
:1017E0002091B00022602093B0002091B1002160D0
:1017F0002093B1009C013327F901E957FF4FE49191
:10180000F0E0EE0FFF1FE358FF4F459154915093C6
:10181000720140937101F901E556FF4FE491E093A5
:10182000700112E0E2CE2F3F31054105510509F06C
:101830000CF452C068E478EE81E090E0A7019601D4
:101840000E94B612215031094109510984E0111159
:1018500037CF83E02F3F31054105510539F134F190
:1018600062E17AE780E090E0A70196010E94B6125B
:10187000215031094109510984E02F3F31054105CB
:101880005105A1F098F08AE0B594A79497948794B5
:101890008A95D1F7A50194012150310941095109D7
:1018A00085E004C09C0181E0111131CF95B5987F8E
:1018B000892B85BD27BD2FEF3FEFA90120937D0127
:1018C00030937E0140937F015093800180916E00A0
:1018D000826080936E00B7CD82E0E6CFEE24FF24D5
:1018E00060E072E18AE790E0A70196010E94B612DB
:1018F000215031094109510991E021153105F1E0EB
:101900004F0751056CF068E478EE81E090E0A701A4
:1019100096010E94B612215031094109510993E004
:10192000113009F0FACE80918100887F892B809355
:10193000810030938900209388008FEF9FEFDC01B6
:101940008093790190937A01A0937B01B0937C01FD
:1019500080916F00826080936F0075CD2093B300FB
:101960002FEF3FEFA901209375013093760140934B
:1019700077015093780180917000826080937000AD
:1019800062CD0E94F5015FCD64E471E0CE01019665
:101990000E944607BE016F5F7F4FCE010D960E94E9
:1019A000D806182FCE0101960E944D06112309F486
:1019B0004ACD18861F821A8619861C861B866D855D
:1019C0007E856115710531F049895A89CE010796E6
:1019D0000E941B0764E371E0CE0101960E94460756
:1019E000BE016F5F7F4FCE0107960E94BD068C013E
:1019F000CE0101960E944D060F3F100709F461C009
:101A0000B801CE0107960E94F1044C016C014FEF22
:101A1000C41AD40AB601CE0107960E94F1045C01F3
:101A20003C015FEF651A750AB301CE0107960E946B
:101A3000F1047C018FEFE816F80611F4EB84FC84C6
:101A4000A8014C5F5F4F9401BE01695F7F4FCE01DB
:101A500001960E945707CE0101960E945506709389
:101A60000F0160930E01CE0101960E944D06950173
:101A7000A601BE01695F7F4FCE0101960E94570704
:101A8000CE0101960E94550670930D0160930C01E2
:101A9000CE0101960E944D069701A301BE01695F28
:101AA0007F4FCE0101960E945707CE0101960E94FA
:101AB000550670930B0160930A01CE0101960E94B6
:101AC0004D0669E371E0CE0101960E944607BE0112
:101AD0006F5F7F4FCE0107960E94BD068C01CE013D
:101AE00001960E944D060F3F100709F442C0B8014D
:101AF000CE0107960E94F1047C016C01AFEFCA1A77
:101B0000DA0AB601CE0107960E94F1045C01BFEF2C
:101B1000EB16FB0671F1019661F1A8014B5F5F4F77
:101B20009701BE01695F7F4FCE0101960E94570762
:101B3000CE0101960E945506709309016093080139
:101B4000CE0101960E944D069501A601BE01695F76
:101B50007F4FCE0101960E945707CE0101960E9449
:101B600055067093070160930601CE0101960E940D
:101B70004D066FE371E0CE0101960E944607BE015B
:101B80006F5F7F4FCE0107960E94BD068C01CE018C
:101B900001960E944D060F3F100709F1B801CE01D2
:101BA00007960E94F1048F3F980711F48B859C855E
:101BB000A8014C5F5F4F9C01BE01695F7F4FCE0162
:101BC00001960E945707CE0101960E945506709318
:101BD000050160930401CE0101960E944D0669E45F
:101BE00071E0CE0101960E944607BE016F5F7F4FF4
:101BF000CE0107960E94BD068C01CE0101960E947F
:101C00004D060F3F100709F467C0B801CE010796D3
:101C10000E94F1048F3F980711F48B859C85A801E1
:101C20004C5F5F4F9C01BE01695F7F4FCE01019603
:101C30000E945707CE0101960E945506D62E062F08
:101C4000172F1093020100930101CE0101960E940B
:101C50004D0680918D0190918E01009711F00E94A8
:101C6000771383E190E00E94DB127C01DC01159682
:101C7000DC9215978BE016968C9316971127F80136
:101C8000E556FF4FE4911796EC93179709571F4FAE
:101C9000F801049118960C93189720E83EE340E071
:101CA00050E01D962D933D934D935C935097F09289
:101CB0008E01E0928D0162E08D2D0E94E4000E9471
:101CC000E901605D774081099109F70161877287B9
:101CD0008387948787E3828B6EE471E0CE0101965F
:101CE0000E944607BE016F5F7F4FCE0107960E949C
:101CF000BD068C01CE0101960E944D060F3F1007D4
:101D000081F1B801CE0107960E94F1048F3F980738
:101D100011F48B859C85A801455F5F4F9C01BE0136
:101D2000695F7F4FCE0101960E945707CE01019651
:101D30000E9460068D819E81892B59F06AE571E0D1
:101D400089819A810E94D11455245394892B09F0DA
:101D5000512C852D817080930301CE0101960E9444
:101D60004D060E949E04CE0107960E944D066BCB45
:101D7000F801618170E090E080E00E9497102DEC06
:101D80003CEC4CEC5DE30E94F6106B017C01D80149
:101D90006C9170E090E080E00E9497109B01AC0194
:101DA000C701B6010E94EF114B015C01C8010E94FE
:101DB0009A03882309F484C0D80116968C918C303C
:101DC00009F4F7C0D0F48B3081F1C12CD12C30EC68
:101DD000E32E3FE7F32E54C0F8016081718176272E
:101DE0006727762790E080E00E9495102DEC3CEC70
:101DF0004CEC5DE30E94F610D7CF8551823028F776
:101E0000F8013280632D70E0762F662766277F7792
:101E10008381682B90E080E00E9495102DEC3CECD3
:101E20004CEC5DE30E94F610E1C0F801628170E0C5
:101E300090E080E00E9495106B017C01D801139620
:101E40001C9117FF0AC0AC019B0160E070E080E8C4
:101E50009FEB0E94EE116B017C011F70612F70E0FF
:101E600090E080E00E9497102DEC3CEC4CEC5DE3A0
:101E70000E94F610A70196010E94EF116B017C01F0
:101E8000A5019401C501B4010E948F12811118C0EF
:101E9000A7019601C701B6010E948F12811110C0DF
:101EA0008092890190928A01A0928B01B0928C015C
:101EB000C0928501D0928601E0928701F09288015C
:101EC0008091810190918201A0918301B091840160
:101ED000A3019201281B390B4A0B5B0BDA01C901E4
:101EE000883C9105A105B10508F456C040928101D6
:101EF000509282016092830170928401809103016B
:101F0000882309F48EC0EDEBF0E08491E9EAF0E07B
:101F10000491E5E9F0E01491111171C010E000E0C6
:101F20008FE00E947D017C018DE591E00E940D050E
:101F30006091890170918A0180918B0190918C014F
:101F40000E947F0580E691E00E940D056091850169
:101F50007091860180918701909188010E947F0590
:101F600084E691E00E940D05B801110F880B990BD2
:101F700097FF5CC00E945E0588E691E00E940D0517
:101F8000B701FF0C880B990B97FF54C00E945E05A8
:101F90008CE691E00E940D0580E090E0892B09F429
:101FA000A7C90E94BD02882309F4A2C90E940000AB
:101FB0009FC9F8013280632D70E090E080E00E94BC
:101FC00095106B017C01D80113966C916F7070E0D5
:101FD00090E080E00E9497102DEC3CEC4CEC5DE32F
:101FE0000E94F610A70196010E94EF116B017C017F
:101FF00037FE46CFF7FAF094F7F8F09441CF81110D
:102000000E948D00E12FF0E0EE0FFF1FE759FF4F18
:10201000A591B491EC910E2309F480CF0FEF13E05A
:102020007FCF8EE00E947D018C017ACF4AE00E9432
:102030001A05A2CF4AE00E941A05AACFECE9F1E006
:102040001382128288EE93E0A0E0B0E0848395834F
:10205000A683B7838AE191E09183808385EC90E049
:102060009587848784EC90E09787868780EC90E062
:10207000918B808B81EC90E0938B828B82EC90E053
:10208000958B848B86EC90E0978B868B118E128ECD
:10209000138E148E08951F93FC0199278827BC0185
:1020A000E89411911032E9F3193010F01E30C8F3A2
:1020B0001B3251F01D3249F4689406C00E94721020
:1020C000610F711D811D911D119110531A30B0F3D4
:1020D0003EF490958095709561957F4F8F4F9F4FFF
:1020E0001F910895592F482F372F262F660F771FDE
:1020F000881F991F660F771F881F991F620F731F14
:10210000841F951F660F771F881F991F08959111CF
:102110000C946311803219F089508550C8F70895E6
:102120000E94D21008F481E00895E89409C097FB5A
:102130003EF490958095709561957F4F8F4F9F4F9E
:102140009923A9F0F92F96E9BB279395F6958795E2
:1021500077956795B795F111F8CFFAF4BB0F11F4A5
:1021600060FF1BC06F5F7F4F8F4F9F4F16C088234C
:1021700011F096E911C0772321F09EE8872F762F82
:1021800005C0662371F096E8862F70E060E02AF0C3
:102190009A95660F771F881FDAF7880F96958795AF
:1021A00097F90895990F0008550FAA0BE0E8FEEF84
:1021B00016161706E807F907C0F012161306E4070B
:1021C000F50798F0621B730B840B950B39F40A2604
:1021D00061F0232B242B252B21F408950A2609F4E2
:1021E000A140A6958FEF811D811D08950E940911C0
:1021F0000C947D110E946F1138F00E94761120F02E
:10220000952311F00C9466110C946C1111240C940C
:10221000B1110E948E1170F3959FC1F3950F50E09C
:10222000551F629FF001729FBB27F00DB11D639F88
:10223000AA27F00DB11DAA1F649F6627B00DA11D2E
:10224000661F829F2227B00DA11D621F739FB00DD4
:10225000A11D621F839FA00D611D221F749F332744
:10226000A00D611D231F849F600D211D822F762FDD
:102270006A2F11249F5750409AF0F1F088234AF0BA
:10228000EE0FFF1FBB1F661F771F881F9150504026
:10229000A9F79E3F510580F00C9466110C94B11182
:1022A0005F3FE4F3983ED4F3869577956795B795AD
:1022B000F795E7959F5FC1F7FE2B880F911D9695C7
:1022C000879597F9089599278827089597F99F6723
:1022D00080E870E060E008959FEF80EC08950024AE
:1022E0000A941616170618060906089500240A947B
:1022F00012161306140605060895092E0394000C01
:1023000011F4882352F0BB0F40F4BF2B11F460FF8F
:1023100004C06F5F7F4F8F4F9F4F089557FD9058B8
:10232000440F551F59F05F3F71F04795880F97FB99
:10233000991F61F09F3F79F0879508951216130653
:102340001406551FF2CF4695F1DF08C01616170682
:102350001806991FF1CF86957105610508940895B7
:10236000E894BB2766277727CB0197F908952F922A
:102370003F924F925F926F927F928F929F92AF9215
:10238000BF92CF92DF92EF92FF920F931F93CF9362
:10239000DF93CDB7DEB7CA1BDB0B0FB6F894DEBFF9
:1023A0000FBECDBF09942A88398848885F846E841F
:1023B0007D848C849B84AA84B984C884DF80EE8069
:1023C000FD800C811B81AA81B981CE0FD11D0FB672
:1023D000F894DEBF0FBECDBFED0108955058BB2766
:1023E000AA270E9406120C947D110E946F1138F0EA
:1023F0000E94761120F039F49F3F19F426F40C94D2
:102400006C110EF4E095E7FB0C946611E92F0E9425
:102410008E1158F3BA17620773078407950720F0E7
:1024200079F4A6F50C94B0110EF4E0950B2EBA2FAA
:10243000A02D0B01B90190010C01CA01A0011124CA
:10244000FF27591B99F0593F50F4503E68F11A1676
:10245000F040A22F232F342F4427585FF3CF469507
:1024600037952795A795F0405395C9F77EF41F1629
:10247000BA0B620B730B840BBAF09150A1F0FF0FF3
:10248000BB1F661F771F881FC2F70EC0BA0F621FDF
:10249000731F841F48F4879577956795B795F795CF
:1024A0009E3F08F0B0CF9395880F08F09927EE0F64
:1024B0009795879508950E94961188F09F5798F0F8
:1024C000B92F9927B751B0F0E1F0660F771F881F39
:1024D000991F1AF0BA95C9F714C0B13091F00E9453
:1024E000B011B1E008950C94B011672F782F8827B0
:1024F000B85F39F0B93FCCF3869577956795B3957A
:10250000D9F73EF490958095709561957F4F8F4FE8
:102510009F4F08950E94D21008F48FEF08950E94F3
:10252000D210880B990B0895A1E21A2EAA1BBB1B8F
:10253000FD010DC0AA1FBB1FEE1FFF1FA217B3078F
:10254000E407F50720F0A21BB30BE40BF50B661FA5
:10255000771F881F991F1A9469F760957095809569
:1025600090959B01AC01BD01CF010895052E97FB0D
:102570001EF400940E94CD1257FD07D00E949412C1
:1025800007FC03D04EF40C94CD1250954095309535
:1025900021953F4F4F4F5F4F0895909580957095CF
:1025A00061957F4F8F4F9F4F0895EE0FFF1F05904E
:1025B000F491E02D09940F931F93CF93DF93823012
:1025C000910510F482E090E0E0913B02F0913C0232
:1025D00030E020E0B0E0A0E0309799F4211531051B
:1025E00009F44AC0281B390B24303105D8F58A81FB
:1025F0009B816115710589F1FB0193838283FE0143
:1026000011C0408151810281138148175907E0F0C0
:102610004817590799F4109761F012960C93129786
:1026200013961C933296CF01DF91CF911F910F919A
:10263000089500933B0210933C02F4CF211531051D
:1026400051F04217530738F0A901DB019A01BD018F
:10265000DF01F801C1CFEF01F9CF90933C028093E5
:102660003B02CDCFFE01E20FF31F819391932250E5
:10267000310939832883D7CF2091390230913A022A
:10268000232B41F4209112013091130130933A022F
:10269000209339022091100130911101211531054B
:1026A00041F42DB73EB74091140150911501241B00
:1026B000350BE0913902F0913A02E217F307A0F4EA
:1026C0002E1B3F0B2817390778F0AC014E5F5F4F88
:1026D0002417350748F04E0F5F1F50933A0240937E
:1026E0003902819391939FCFF0E0E0E09CCFCF93AC
:1026F000DF930097E9F0FC01329713821282A091D8
:102700003B02B0913C02ED0130E020E01097A1F4D3
:1027100020813181820F931F2091390230913A023A
:102720002817390709F061C0F0933A02E0933902A3
:10273000DF91CF910895EA01CE17DF07E8F54A81CE
:102740005B819E0141155105B1F7E901FB83EA83E5
:1027500049915991C40FD51FEC17FD0761F4808191
:1027600091810296840F951FE90199838883828164
:1027700093819B838A83F0E0E0E012968D919C9197
:1027800013970097B9F52D913C911197CD010296C1
:10279000820F931F2091390230913A02281739078E
:1027A00039F6309751F510923C0210923B02B093EB
:1027B0003A02A0933902BCCFD383C28340815181B6
:1027C000840F951FC817D90761F44E5F5F4F88814A
:1027D0009981480F591F518340838A819B8193833C
:1027E00082832115310509F0B0CFF0933C02E093CC
:1027F0003B029ECFFD01DC01C0CF13821282D7CFF6
:10280000B0E0A0E0E6E0F4E10C94B9118C0100978F
:1028100051F4CB010E94DB128C01C801CDB7DEB7A9
:10282000E0E10C94D511FC01E60FF71F9C0122504A
:102830003109E217F30708F49DC0D901CD91DC916D
:102840001197C617D70798F0C530D10530F3CE01E0
:1028500004978617970708F3C61BD70B2297C193D7
:10286000D1936D937C93CF010E947713D6CF5B01F8
:10287000AC1ABD0A4C018C0E9D1EA0913B02B0917A
:102880003C02512C412CF12CE12C109731F5809118
:10289000390290913A028815990509F05CC04616F4
:1028A000570608F058C080911001909111010097CF
:1028B00041F48DB79EB74091140150911501841BCE
:1028C000950BE817F90708F055C0F0933A02E0932A
:1028D0003902F90171836083A0CF8D919C9111978A
:1028E00012966C90129713967C901397A815B905C1
:1028F00059F56C0142E0C40ED11CCA14DB0420F16E
:10290000AC014A195B09DA011296159780F06282D0
:10291000738251834083D9016D937C93E114F10458
:1029200071F0D7011396FC93EE93129776CF22960F
:102930008C0F9D1FF90191838083F301EFCFF093FA
:102940003C02E0933B0269CF4816590608F42C017B
:102950007D01D3019ACFCB010E94DB127C0100974D
:1029600049F0AE01B8010E94BD14C8010E9477135E
:10297000870153CF10E000E050CFFB01DC0102C023
:1029800001900D9241505040D8F70895FC0181917B
:10299000861721F08823D9F7992708953197CF0119
:1029A0000895FB01DC018D91019080190110D9F38C
:1029B000990B0895FB01DC0101900D920020E1F7D5
:1029C0000895FB01DC014150504030F08D910190A1
:1029D000801919F40020B9F7881B990B0895FB01A1
:1029E00051915523A9F0BF01DC014D9145174111CB
:1029F000E1F759F4CD010190002049F04D914015C7
:102A00004111C9F3FB014111EFCF81E090E0019743
:102A10000895F894FFCFFF020001060005000700AB
:102A20000B000A00090000003D02800000000000C9
:102A3000F30221024E024003B1025D02A3026E6165
:102A40006E00696E66006F7666005247423A00502B
:102A5000554D503A0042555A3A004346473A0044D1
:102A600048543A004C494748545F545950453A003D
:102A7000444F00483A002C543A002C4C3A002C5356
:062A80003A000D0A0000FF
:107E0000112484B714BE81FFF0D085E080938100F7
:107E100082E08093C00088E18093C10086E0809377
:107E2000C20080E18093C4008EE0C9D0259A86E02C
:107E300020E33CEF91E0309385002093840096BBD3
:107E4000B09BFECF1D9AA8958150A9F7CC24DD24C4
:107E500088248394B5E0AB2EA1E19A2EF3E0BF2EE7
:107E6000A2D0813461F49FD0082FAFD0023811F036
:107E7000013811F484E001C083E08DD089C08234E0
:107E800011F484E103C0853419F485E0A6D080C0E4
:107E9000853579F488D0E82EFF2485D0082F10E0AE
:107EA000102F00270E291F29000F111F8ED06801E7
:107EB0006FC0863521F484E090D080E0DECF843638
:107EC00009F040C070D06FD0082F6DD080E0C81688
:107ED00080E7D80618F4F601B7BEE895C0E0D1E017
:107EE00062D089930C17E1F7F0E0CF16F0E7DF06D8
:107EF00018F0F601B7BEE89568D007B600FCFDCFD4
:107F0000A601A0E0B1E02C9130E011968C91119780
:107F100090E0982F8827822B932B1296FA010C0160
:107F200087BEE89511244E5F5F4FF1E0A038BF0790
:107F300051F7F601A7BEE89507B600FCFDCF97BE46
:107F4000E89526C08437B1F42ED02DD0F82E2BD052
:107F50003CD0F601EF2C8F010F5F1F4F84911BD097
:107F6000EA94F801C1F70894C11CD11CFA94CF0C13
:107F7000D11C0EC0853739F428D08EE10CD085E9AC
:107F80000AD08FE07ACF813511F488E018D01DD067
:107F900080E101D065CF982F8091C00085FFFCCF94
:107FA0009093C60008958091C00087FFFCCF809118
:107FB000C00084FD01C0A8958091C6000895E0E648
:107FC000F0E098E1908380830895EDDF803219F02E
:107FD00088E0F5DFFFCF84E1DECF1F93182FE3DFCA
:107FE0001150E9F7F2DF1F91089580E0E8DFEE27F6
:047FF000FF270994CA
:027FFE00040479
:00000001FF
