:100000000C9463000C948B000C948B000C948B006C
:100010000C948B000C948B000C948B000C9448086F
:100020000C948B000C948B000C948B000C948B0024
:100030000C948B000C948B000C948B000C948B0014
:100040000C94FE070C948B000C94CA080C94A40822
:100050000C948B000C948B000C948B000C948B00F4
:100060000C948B000C948B000200000000230026EF
:1000700000290000000000240027002A00000000E2
:1000800000250028002B00040404040404040402D6
:100090000202020202030303030303010204081025
:1000A00020408001020408102001020408102000F2
:1000B0000000080002010000030407000000000027
:1000C000000000003C1111241FBECFEFD8E0DEBFBE
:1000D000CDBF22E0A0E8B1E001C01D92A235B20779
:1000E000E1F711E0A0E0B1E0E2E5FCE202C005903A
:1000F0000D92A038B107D9F710E0C3E6D0E004C0F4
:100100002197FE010E94F313C236D107C9F70E945E
:10011000FC080C9427160C940000833081F028F41E
:10012000813099F08230A9F008958730A9F08830A5
:10013000C9F08430B1F4809180008F7D03C080913C
:1001400080008F7780938000089584B58F7784BD79
:10015000089584B58F7DFBCF8091B0008F77809319
:10016000B00008958091B0008F7DF9CF1F93CF9399
:10017000DF93282F30E0F901E155FF4F8491F90119
:10018000E556FF4FD491F901E957FF4FC491CC23B5
:10019000A9F0162F81110E948D00EC2FF0E0EE0FD8
:1001A000FF1FE358FF4FA591B4918FB7F894EC91DE
:1001B000111108C0D095DE23DC938FBFDF91CF9162
:1001C0001F910895DE2BF8CFCF93DF9390E0FC01D1
:1001D000E556FF4F249189579F4FFC018491882356
:1001E000C9F090E0880F991FFC01ED58FF4FA591D1
:1001F000B491FC01E358FF4FC591D49161110DC03A
:100200009FB7F8948C91209582238C938881282322
:1002100028839FBFDF91CF910895623051F49FB73B
:10022000F8943C91822F809583238C93E8812E2B28
:10023000EFCF8FB7F894EC912E2B2C938FBFEACF92
:100240001F93CF93DF93182FEB0161E00E94E4002E
:10025000209739F460E0812FDF91CF911F910C94AA
:10026000B600CF3FD10511F461E0F5CFE12FF0E00A
:10027000E155FF4FE491E33031F140F4E130B1F06A
:10028000E230E1F0C038D1057CF7E4CFE73029F166
:10029000E83059F1E430B1F78091800080628093BA
:1002A0008000D0938B00C0938A0004C084B580681E
:1002B00084BDC7BDDF91CF911F91089584B5806241
:1002C00084BDC8BDF7CF8091800080688093800096
:1002D000D0938900C0938800EDCF8091B0008068F2
:1002E0008093B000C093B300E5CF8091B0008062EE
:1002F0008093B000C093B400DDCF8E3008F08E50F4
:100300008770806480937C0080917A008064809301
:100310007A0080917A0086FDFCCF809178009091E0
:10032000790008953FB7F8948091AD019091AE01A6
:10033000A091AF01B091B00126B5A89B05C02F3F99
:1003400019F00196A11DB11D3FBFBA2FA92F982FFB
:100350008827BC01CD01620F711D811D911D42E0F6
:10036000660F771F881F991F4A95D1F708958F92BE
:100370009F92AF92BF92CF92DF92EF92FF924B018A
:100380005C010E9492016B017C010E9492016C1938
:100390007D098E099F09683E734081059105A8F388
:1003A00021E0821A9108A108B10888EEC80E83E006
:1003B000D81EE11CF11C81149104A104B10429F799
:1003C000FF90EF90DF90CF90BF90AF909F908F9075
:1003D00008952FB7F8946091A9017091AA018091B6
:1003E000AB019091AC012FBF08959091000189134A
:1003F0000BC0E8E6F0E0E4919FEF90930001E1305C
:1004000049F028F0E23061F060E00C94B600109200
:100410006E00FACF90916F009D7F90936F00F4CFA4
:10042000909170009D7F9093700091E09093B00048
:100430009091B100987F94609093B1001092B300B6
:10044000E3CFAF92BF92CF92DF92EF92FF920F93E2
:100450001F93CF93DF936C017B018B01040F151F5A
:10046000EB015E01AE18BF08C017D10759F06991C2
:10047000D601ED91FC910190F081E02DC601099526
:10048000892B79F7C501DF91CF911F910F91FF90D3
:10049000EF90DF90CF90BF90AF900895FC01538D07
:1004A000448D252F30E0842F90E0821B930B54174E
:1004B00010F0CF96089501970895FC01918D828DDB
:1004C000981761F0A28DAE0FBF2FB11D5D968C9174
:1004D000928D9F5F9F73928F90E008958FEF9FEFB3
:1004E00008950F931F930E94E9016093B9017093DF
:1004F000BA018093BB019093BC0181EB91E00E9413
:100500005D0297FF1DC00E94E9010091B9011091A1
:10051000BA012091BB013091BC01601B710B820BB1
:10052000930B0091B5011091B6012091B701309164
:10053000B8016017710782079307F8F28FEF9FEFFA
:100540001F910F910895FC01918D828D981731F0C4
:10055000828DE80FF11D858D90E008958FEF9FEF5C
:100560000895FC01918D228D892F90E0805C9F4F32
:10057000821B91098F739927089581EB91E00E9466
:10058000B10221E0892B09F420E0822F089580E058
:1005900090E0892B29F00E94BD0281110C9400008B
:1005A0000895FC01A48DA80FB92FB11DA35ABF4F08
:1005B0002C91848D90E001968F739927848FA68962
:1005C000B7892C93A089B1898C91837080648C93B6
:1005D000938D848D981306C00288F389E02D808165
:1005E0008F7D80830895EF92FF920F931F93CF9397
:1005F000DF93EC0181E0888F9B8D8C8D98131AC05E
:10060000E889F989808185FF15C09FB7F894EE8944
:10061000FF896083E889F9898081837080648083A1
:100620009FBF81E090E0DF91CF911F910F91FF90EC
:10063000EF900895F62E0B8D10E00F5F1F4F0F7394
:100640001127E02E8C8D8E110CC00FB607FCFACF4F
:10065000E889F989808185FFF5CFCE010E94D1021A
:10066000F1CFEB8DEC0FFD2FF11DE35AFF4FF08220
:100670009FB7F8940B8FEA89FB8980818062CFCF86
:10068000CF93DF93EC01888D8823B9F0AA89BB89C9
:10069000E889F9898C9185FD03C0808186FD0DC0B4
:1006A0000FB607FCF7CF8C9185FFF2CF808185FFD5
:1006B000EDCFCE010E94D102E9CFDF91CF91089515
:1006C000CF92DF92EF92FF92CF93DF93DC011796E8
:1006D000CC911797D0E06111DC2F18962C911897C8
:1006E00030E0220F331F27593F4F50E040E0F9011F
:1006F00085919491FC01F080BA0190E080E0EF2DAB
:10070000EC23ED1310C04F5F5F4F1D96CD90DD9031
:10071000ED90FC9050976C157D058E059F0538F384
:100720006FEF7FEFCB01DF91CF91FF90EF90DF90E4
:10073000CF9008958F929F92AF92BF92CF92DF9207
:10074000EF92FF920F931F93CF93DF93CDB7DEB756
:10075000C054D1400FB6F894DEBF0FBECDBF8C01A0
:100760000E94E901F801C184D284E384F4849B01EE
:10077000AC012C193D094E095F0969017A0130ED80
:10078000C31637E0D306E104F104A8F48189C05C04
:10079000DE4F0FB6F894DEBF0FBECDBFDF91CF9115
:1007A0001F910F91FF90EF90DF90CF90BF90AF908F
:1007B0009F908F90089561877287838794871482B2
:1007C000138212821182108262E085810E94E4000D
:1007D00061E070E080E090E00E94B70161E0F80124
:1007E00085810E94E40060E0F80185810E94B600E6
:1007F000F80186818551823028F58BE291E10197DD
:10080000F1F762E0F80185810E94E400F801828935
:1008100090E08230910538F0880F991F880F991F5A
:1008200005970197F1F7F89460E0C8010E94600312
:100830006F3F7F4F8F4F9F4F61F4F801118A78947B
:1008400080E0A5CF64E170E080E090E00E94B70115
:10085000D8CF61E0C8010E9460036F3F7F4F8F4F88
:100860009F4F59F39E012F5F3F4F79015E013FEB90
:10087000A31A3EEFB30A670160E0C8010E9460035B
:10088000F601608371838283938361E0C8010E94D3
:100890006003F6016483758386839783F8E0CF0E47
:1008A000D11CCA14DB0441F7789430E020E0F70152
:1008B00080809180A280B380448155816681778158
:1008C000FFEF8F169F06AF06BF0631F04F3F8FEF49
:1008D00058076807780719F4F801118AB1CFF901B0
:1008E00083E0F595E7958A95E1F7E00FF11F8081A8
:1008F000880F84169506A606B706F0F080832F5F52
:100900003F4FF8E0EF0EF11C2832310581F6F80177
:10091000448120818181280F3327331F8281280F52
:10092000311D8381820F932F911D99274817190636
:1009300099F681E0818B2BCF8160E0CFEF92FF921F
:100940000F931F93CF93DF93E0900C0161E08E2D06
:100950000E94E400F0900A0161E08F2D0E94E40003
:100960000091080161E0802F0E94E40010911201C3
:1009700061E0812F0E94E400D091100161E08D2F91
:100980000E94E400C0910E0161E08C2F0E94E400FF
:1009900080910701882329F060E0809105010E9481
:1009A000E40060E08E2D0E94B60070E060E08F2DC4
:1009B0000E942001802F0E94F50170E060E0812FED
:1009C0000E94200170E060E08D2F0E94200170E005
:1009D00060E08C2FDF91CF911F910F91FF90EF90EE
:1009E0000C942001CF93DF93FC01248135816217A1
:1009F000730788F49B01C081D1816CE270E0CE0165
:100A0000820F931F0E94E415009729F08C1B9D0B09
:100A1000DF91CF9108958FEF9FEFFACFFC01019006
:100A20000020E9F73197AF01481B590BBC0181EB5E
:100A300091E00C9421028F929F92AF92BF920F93FC
:100A40001F93CF93DF93CDB7DEB7A1970FB6F8947E
:100A5000DEBF0FBECDBF19A2423008F44AE08E01BE
:100A60000F5D1F4F842E912CB12CA12CA501940158
:100A70000E94B213E62FB901CA01EA30F4F4E05D36
:100A8000D801EE938D01232B242B252B79F790E0B1
:100A900080E0109719F0CD010E940E05A1960FB6C7
:100AA000F894DEBF0FBECDBFDF91CF911F910F91A4
:100AB000BF90AF909F908F900895E95CE1CFCF9267
:100AC000DF92EF92FF92CF93DF936B017C016DE297
:100AD00081EB91E00E94F302EC0166277727CB01BE
:100AE0006C197D098E099F094AE00E941B058C0F35
:100AF0009D1FDF91CF91FF90EF90DF90CF900895F1
:100B00004F925F926F927F928F929F92AF92BF921D
:100B1000CF92DF92EF92FF926B017C01AC019B01BF
:100B20000E94AD13882381F08CE291E0FF90EF905A
:100B3000DF90CF90BF90AF909F908F907F906F90FD
:100B40005F904F900C940E0546015701E894B7F85A
:100B50002FEF3FEF4FE75FE7C501B4010E94AD13F0
:100B600081110DC02FEF3FEF4FE75FE7C501B401E3
:100B70000E94AE1118161CF480E391E0D7CF2FEF3E
:100B80003FEF4FE75FE4C701B6010E94A8131816B4
:100B90001CF484E391E0CACF2FEF3FEF4FE75FEC07
:100BA000C701B6010E94AE1187FDF3CF20E030E00F
:100BB000A901C701B6010E94AE11B12CA12C87FF7B
:100BC0000AC06DE281EB91E00E94F3025C01F7FA4A
:100BD000F094F7F8F0942AE037ED43EA5BE3C701BD
:100BE000B6010E940D132B013C010E9479136B0189
:100BF0007C010E94B3119B01AC01C301B2010E94B0
:100C00000C132B013C014AE0C701B6010E941B05F1
:100C10007C01EA0CFB1C6EE281EB91E00E94F30286
:100C2000E80EF91E20E030E040E251E4C301B201D9
:100C30000E9414122B013C010E9479134B01B12C2C
:100C4000A12C4AE0C501B4010E941B05E80EF91E63
:100C5000C501B4010E94B3119B01AC01C301B201F3
:100C60000E940C1320E030E040E251E40E94141294
:100C70000E94791390E080E04AE00E941B058E0DEF
:100C80009F1DFF90EF90DF90CF90BF90AF909F900F
:100C90008F907F906F905F904F900895FC018081BE
:100CA0009181009711F00C9495140895FC018081B6
:100CB0009181009711F00C94691160E070E0CB0114
:100CC0000895AF92BF92CF92DF92EF92FF920F936F
:100CD0001F93CF93DF93DC01CD90DC901197C1146B
:100CE000D10439F01496CD91DC918C0176012097D6
:100CF00061F4DF91CF911F910F91FF90EF90DF9002
:100D0000CF90BF90AF90089575015701BFEFAB1A18
:100D1000BB0AF7018081082E000C990B0E94A511D7
:100D2000892B91F72197CC0DDD1D8881082E000CB1
:100D3000990B0E94A511892B29F0CE15DF0510F023
:100D40002197F3CFAE014F5F5F4F4E195F09D80176
:100D500015965C934E931497CE14DF0420F4B701DC
:100D6000C6010E94DB15D801ED91FC9111971496F4
:100D70008D919C91E80FF91F1082BBCFCF93DF9329
:100D8000DC0114962D913C911597232B79F0FB01F2
:100D9000CD91DC9160817181CE010E940D1600978A
:100DA00029F08C1B9D0BDF91CF9108958FEF9FEF62
:100DB000FACFFB0144815581FC0124813581241740
:100DC000350778F080819181009759F0FB016081AF
:100DD00071816115710529F00E94FF1521E0892BB1
:100DE00009F020E0822F08950F931F93CF93DF9394
:100DF000EC0188819981009759F02A813B8126175F
:100E0000370730F081E0DF91CF911F910F91089566
:100E10008B016F5F7F4F0E941E15009759F09983D9
:100E200088831B830A832C813D81232B59F7FC0186
:100E30001082E8CF80E0E7CFEF92FF920F931F93ED
:100E4000CF93DF93EC017B018A01BA010E94F40683
:100E500028813981811114C02115310519F0C9018A
:100E60000E949514198218821D821C821B821A828C
:100E7000CE01DF91CF911F910F91FF90EF900895D8
:100E80001D830C83B701C9010E94F815F1CFFC0145
:100E9000118210821382128215821482FB0101904A
:100EA0000020E9F73197AF01461B570B0C941C0744
:100EB000AF92BF92CF92DF92EF92FF920F931F9368
:100EC000CF93DF93EC016B015A01790124173507A9
:100ED00020F48B2D5901E42EF82E6FE771E0CE013E
:100EE0000E944707D60114960D911C91A016B106D9
:100EF00028F5E016F10608F48701D601ED91FC9182
:100F00001197E00FF11FF08010826D917C916A0DB6
:100F10007B1D61157105F1F0FB0101900020E9F7DF
:100F20003197AF01461B570BCE010E941C07F601FB
:100F300080819181080F191FD801FC92CE01DF91A9
:100F4000CF911F910F91FF90EF90DF90CF90BF90C6
:100F5000AF90089588819981009711F00E949514AF
:100F6000198218821D821C821B821A82E0CFFF9296
:100F70000F931F93CF93DF9300D000D000D0CDB755
:100F8000DEB78C010E94610668E371E0CE01019634
:100F90000E944707BE016F5F7F4FC8010E94D906BC
:100FA000F82ECE0101960E944E06FF2011F1F801A5
:100FB0002481358141E050E0B801CE0101960E94C4
:100FC0005807CE0101960E9456068B01025F1F4F03
:100FD000CE0101960E944E06C80126960FB6F894DF
:100FE000DEBF0FBECDBFDF91CF911F910F91FF905C
:100FF0000895C8010E9456068B01EECF1F920F92F2
:101000000FB60F9211242F933F938F939F93AF931B
:10101000BF938091A9019091AA01A091AB01B091D9
:10102000AC013091A80123E0230F2D3758F501962C
:10103000A11DB11D2093A8018093A9019093AA013D
:10104000A093AB01B093AC018091AD019091AE0142
:10105000A091AF01B091B0010196A11DB11D809387
:10106000AD019093AE01A093AF01B093B001BF91D9
:10107000AF919F918F913F912F910F900FBE0F9045
:101080001F90189526E8230F0296A11DB11DD2CFFF
:101090001F920F920FB60F9211242F933F934F93ED
:1010A0005F936F937F938F939F93AF93BF93EF93D0
:1010B000FF938091850190918601A0918701B09165
:1010C0008801892B8A2B8B2BD1F190918001E091A3
:1010D0008101F0918201808189278083809185013F
:1010E00090918601A0918701B09188011816190688
:1010F0001A061B069CF48091850190918601A091AF
:101100008701B09188010197A109B10980938501F8
:1011100090938601A0938701B0938801FF91EF918E
:10112000BF91AF919F918F917F916F915F914F91FF
:101130003F912F910F900FBE0F901F9018958091A7
:1011400000010E94F501EACF1F920F920FB60F9295
:1011500011242F933F934F935F936F937F938F93BC
:101160009F93AF93BF93EF93FF9381EB91E00E9426
:10117000D102FF91EF91BF91AF919F918F917F919C
:101180006F915F914F913F912F910F900FBE0F90F4
:101190001F9018951F920F920FB60F9211242F9344
:1011A0008F939F93EF93FF93E091C101F091C20160
:1011B0008081E091C701F091C80182FD1BC0908140
:1011C0008091CA018F5F8F732091CB01821741F00C
:1011D000E091CA01F0E0EF54FE4F958F8093CA0171
:1011E000FF91EF919F918F912F910F900FBE0F90D4
:1011F0001F9018958081F4CFCF93DF93CDB7DEB7E2
:1012000062970FB6F894DEBF0FBECDBF789484B559
:10121000826084BD84B5816084BD85B5826085BDF2
:1012200085B5816085BD80916E00816080936E0080
:101230001092810080918100826080938100809172
:101240008100816080938100809180008160809323
:1012500080008091B10084608093B1008091B000E3
:1012600081608093B00080917A00846080937A00DE
:1012700080917A00826080937A0080917A00816008
:1012800080937A0080917A00806880937A0010922F
:10129000C100E091C101F091C20182E08083E09140
:1012A000BD01F091BE011082E091BF01F091C0013B
:1012B00080E180831092C901E091C501F091C601DF
:1012C00086E08083E091C301F091C4018081806158
:1012D0008083E091C301F091C401808188608083A4
:1012E000E091C301F091C401808180688083E09126
:1012F000C301F091C40180818F7D808383E190E000
:101300000E94F9138C018091010190910201D80192
:1013100015968C9315972BE016962C9316979C0197
:101320003327F901E556FF4FE4911796EC93179791
:10133000F901E957FF4FE4911896EC9340E85EE31A
:1013400060E070E0F801458756876787708B1093DF
:101350009E0100939D0162E00E94E4000E94E90169
:10136000605D774081099109D80119966D937D934D
:101370008D939C931C9787E352968C930E949E04B6
:1013800081EB91E00E94B102181619060CF0B1C071
:101390006FE771E0CE010D960E9447070E9471022F
:1013A00097FD1EC08A309105D9F089831A82098978
:1013B0001A890F5F1F4FB801CE010D960E94F406E7
:1013C000882361F32D853E8589899A89BE016F5FE7
:1013D0007F4F820F931F0E94F8151A8B098BDECF67
:1013E000CE010D960E9461060E94E9016093A4015E
:1013F0007093A5018093A6019093A7016AE371E021
:10140000CE0101960E944707BE016F5F7F4FCE015C
:101410000D960E94D906182FCE0101960E944E0605
:10142000112309F4A4C070E060E0CE010D960E9483
:10143000F2046C017C01BFEFEB1AFB0AB701CE018D
:101440000D960E94F2048C011C141D040CF04DC07A
:10145000181619060CF049C0960144E050E0BE0190
:10146000635F7F4FCE0101960E945807CE0101961F
:101470000E9456064B01CE0101960E944E0698012D
:10148000A701BE01635F7F4FCE0101960E945807FE
:10149000CE0101960E9456062B01CE0101960E94B4
:1014A0004E0629893A89A8014F5F5F4FBE01635FED
:1014B0007F4FCE0101960E945807CE0101960E94EF
:1014C00056066B01CE0101960E944E06B401809132
:1014D00012010E942001B201809110010E9420019E
:1014E000B60180910E010E942001CE010D960E944E
:1014F0004E060E94E9014B015C0180919F01909191
:10150000A001A091A101B091A201A5019401281B05
:10151000390B4A0B5B0BDA01C901803D9740A105ED
:10152000B10508F4B6C580929F019092A001A092E7
:10153000A101B092A20100919D0110919E01C801EC
:101540000E949A03882361F0D80116968C918B3003
:1015500038F08D3008F4F5C48551823008F425C583
:10156000412C512C50EC652E5FE7752E08C56FE3BA
:1015700071E0CE0101960E944707BE016F5F7F4F69
:10158000CE010D960E94D906182FCE0101960E9419
:101590004E06112309F44AC070E060E0CE010D96BA
:1015A0000E94F2048C018F3F980709F49ECF9C01A2
:1015B00045E050E0BE01635F7F4FCE0101960E947F
:1015C0005807CE0101960E9456064B01CE010196A6
:1015D0000E944E0629893A89A8014F5F5F4FBE01DC
:1015E000635F7F4FCE0101960E945807CE0101969E
:1015F0000E9456066B018B01CE0101960E944E0699
:1016000061E0181419040CF060E080910C010E9454
:10161000B600B60180910A010E94200181E01016F7
:1016200011060CF080E08093A3015FCF65E471E0C8
:10163000CE0101960E944707BE016F5F7F4FCE012A
:101640000D960E94D906582ECE0101960E944E0694
:10165000552009F4F5C129893A8944E050E0BE01DA
:10166000635F7F4FCE0101960E945807CE0101961D
:101670000E9456066B017C01CE0101960E944E0627
:1016800080910801909109011C141D040CF0D5C132
:10169000209100012813A6C0E8E6F0E0149117FDA0
:1016A00024CF61E00E94E400112319F0123009F008
:1016B00071C1EE24FF2460E072E18AE790E0A701A7
:1016C00096010E94D41349015A01DA01C901019718
:1016D000A109B1098F3F9105A105B10509F00CF4ED
:1016E0003DC160E472E48FE090E0A70196010E94A2
:1016F000D4132150310941095109123009F0EFC0CA
:1017000082E02F3F31054105510509F00CF45BC023
:1017100060E970ED83E090E0A70196010E94D41388
:10172000215031094109510983E02F3F310541051D
:10173000510509F00CF447C068E478EE81E090E0D0
:10174000A70196010E94D413215031094109510982
:1017500084E02F3F310541055105A9F1A4F164E270
:1017600074EF80E090E0A70196010E94D41321500D
:1017700031094109510985E02F3F310541055105E6
:1017800011F108F162E17AE780E090E0A7019601AB
:101790000E94D413215031094109510986E02F3F9D
:1017A00031054105510579F070F09AE0B594A794A0
:1017B000979487949A95D1F7A50194012150310906
:1017C0004109510987E09091B100987F892B80935E
:1017D000B100113009F409C1123009F41BC1111113
:1017E00084CEC4C02F3F09F080CE80930001E8E68C
:1017F000F0E014911F3F09F478CE113039F148F030
:10180000123009F445C017FD70CE61E00E94E4007B
:101810004DCF14BC15BC24B5226024BD25B5216074
:1018200025BD9C013327F901E957FF4FE491F0E012
:10183000EE0FFF1FE358FF4F45915491F901E55614
:10184000FF4FE491E093840110E02BCF10928000D1
:1018500010928100209181002860209381002091C6
:1018600081002160209381009C013327F901E95711
:10187000FF4FE491F0E0EE0FFF1FE358FF4F45915B
:101880005491F901E556FF4FE491E093830109CFAC
:101890001092B0001092B1002091B000226020930D
:1018A000B0002091B10021602093B1009C0133274A
:1018B000F901E957FF4FE491F0E0EE0FFF1FE35805
:1018C000FF4F459154915093820140938101F9015A
:1018D000E556FF4FE491E093800112E0E2CE2F3F06
:1018E00031054105510509F00CF452C068E478EE69
:1018F00081E090E0A70196010E94D41321503109A4
:101900004109510984E0111137CF83E02F3F3105A0
:101910004105510539F134F162E17AE780E090E068
:10192000A70196010E94D4132150310941095109A0
:1019300084E02F3F310541055105A1F098F08AE080
:10194000B594A794979487948A95D1F7A5019401AB
:10195000215031094109510985E004C09C0181E011
:10196000111131CF95B5987F892B85BD27BD2FEFFC
:101970003FEFA90120938D0130938E0140938F0199
:101980005093900180916E00826080936E00ADCD87
:1019900082E0E6CFEE24FF2460E072E18AE790E087
:1019A000A70196010E94D413215031094109510920
:1019B00091E021153105F1E04F0751056CF068E425
:1019C00078EE81E090E0A70196010E94D4132150A7
:1019D00031094109510993E0113009F0FACE8091A3
:1019E0008100887F892B8093810030938900209328
:1019F00088008FEF9FEFDC018093890190938A012B
:101A0000A0938B01B0938C0180916F0082608093D2
:101A10006F006BCD2093B3002FEF3FEFA901209310
:101A2000850130938601409387015093880180910E
:101A3000700082608093700058CD0E94F50155CDF2
:101A40006AE471E0CE0101960E944707BE016F5F14
:101A50007F4FCE010D960E94D906182FCE01019618
:101A60000E944E06112309F440CD18861F821A8663
:101A700019861C861B866D857E856115710531F082
:101A800049895A89CE0107960E941C078091080156
:101A90000E94F50170E060E080910A010E9420013F
:101AA00060E080910C010E94B60070E060E08091DF
:101AB00012010E94200170E060E0809110010E94FC
:101AC000200170E060E080910E010E9420016AE335
:101AD00071E0CE0101960E944707BE016F5F7F4F04
:101AE000CE0107960E94BE068C01CE0101960E948F
:101AF0004E060F3F100709F461C0B801CE010796EA
:101B00000E94F2044C016C014FEFC41AD40AB601D2
:101B1000CE0107960E94F2045C013C015FEF651A5A
:101B2000750AB301CE0107960E94F2047C018FEF83
:101B3000E816F80611F4EB84FC84A8014C5F5F4FB3
:101B40009401BE01695F7F4FCE0101960E94580744
:101B5000CE0101960E945606709313016093120104
:101B6000CE0101960E944E069501A601BE01695F55
:101B70007F4FCE0101960E945807CE0101960E9428
:101B800056067093110160931001CE0101960E94D8
:101B90004E069701A301BE01695F7F4FCE010196FA
:101BA0000E945807CE0101960E94560670930F01BD
:101BB00060930E01CE0101960E944E066FE371E024
:101BC000CE0101960E944707BE016F5F7F4FCE0195
:101BD00007960E94BE068C01CE0101960E944E0619
:101BE0000F3F100709F442C0B801CE0107960E94CA
:101BF000F2047C016C01AFEFCA1ADA0AB601CE0119
:101C000007960E94F2045C01BFEFEB16FB0671F130
:101C1000019661F1A8014B5F5F4F9701BE01695FBB
:101C20007F4FCE0101960E945807CE0101960E9477
:101C3000560670930D0160930C01CE0101960E942F
:101C40004E069501A601BE01695F7F4FCE01019648
:101C50000E945807CE0101960E94560670930B0110
:101C600060930A01CE0101960E944E0665E471E080
:101C7000CE0101960E944707BE016F5F7F4FCE01E4
:101C800007960E94BE068C01CE0101960E944E0668
:101C90000F3F100709F1B801CE0107960E94F20428
:101CA0008F3F980711F48B859C85A8014C5F5F4F8F
:101CB0009C01BE01695F7F4FCE0101960E945807CB
:101CC000CE0101960E9456067093090160930801A7
:101CD000CE0101960E944E066FE471E0CE0101969E
:101CE0000E944707BE016F5F7F4FCE0107960E949B
:101CF000BE068C01CE0101960E944E060F3F1007D2
:101D000009F467C0B801CE0107960E94F2048F3F24
:101D1000980711F48B859C85A8014C5F5F4F9C014F
:101D2000BE01695F7F4FCE0101960E945807CE0128
:101D300001960E945606D62E062F172F10930201E9
:101D400000930101CE0101960E944E0680919D01F3
:101D500090919E01009711F00E94951483E190E00C
:101D60000E94F9137C01DC011596DC9215978BE03B
:101D700016968C9316971127F801E556FF4FE491BC
:101D80001796EC93179709571F4FF801049118966F
:101D90000C93189720E83EE340E050E01D962D9309
:101DA0003D934D935C935097F0929E01E0929D017C
:101DB00062E08D2D0E94E4000E94E901605D7740A1
:101DC00081099109F701618772878387948787E387
:101DD000828B64E571E0CE0101960E944707BE0147
:101DE0006F5F7F4FCE0107960E94BE068C01CE0129
:101DF00001960E944E060F3F100709F1B801CE016F
:101E000007960E94F2048F3F980711F48B859C85FA
:101E1000A8014C5F5F4F9C01BE01695F7F4FCE01FF
:101E200001960E945807CE0101960E94B707909331
:101E3000060180930501CE0101960E944E0669E5D8
:101E400071E0CE0101960E944707BE016F5F7F4F90
:101E5000CE0107960E94BE068C01CE0101960E941B
:101E60004E060F3F100709F1B801CE0107960E94F8
:101E7000F2048F3F980711F48B859C85A8014B5F76
:101E80005F4F9C01BE01695F7F4FCE0101960E94AA
:101E90005807CE0101960E94B707909304018093E2
:101EA0000301CE0101960E944E066FE571E0CE015E
:101EB00001960E944707BE016F5F7F4FCE010796D4
:101EC0000E94BE068C01CE0101960E944E060F3F75
:101ED000100781F1B801CE0107960E94F2048F3FEE
:101EE000980711F48B859C85A801455F5F4F9C0185
:101EF000BE01695F7F4FCE0101960E945807CE0157
:101F000001960E9461068D819E81892B59F06BE6B6
:101F100071E089819A810E94EF1555245394892B91
:101F200009F0512C852D817080930701CE01019617
:101F30000E944E060E949E04CE0107960E944E0605
:101F4000D4CAF801618170E090E080E00E94B51190
:101F50002DEC3CEC4CEC5DE30E9414126B017C0117
:101F6000D8016C9170E090E080E00E94B5119B0177
:101F7000AC01C701B6010E940D132B013C01C80141
:101F80000E949A03882309F484C0D80116968C9184
:101F90008C3009F42DC1D0F48B3081F1C12CD12CBF
:101FA00030ECE32E3FE7F32E54C0F80160817181DD
:101FB00076276727762790E080E00E94B3112DEC0A
:101FC0003CEC4CEC5DE30E941412D7CF855182307B
:101FD00028F7F8013280632D70E0762F6627662798
:101FE0007F778381682B90E080E00E94B3112DEC15
:101FF0003CEC4CEC5DE30E94141217C1F8016281C5
:1020000070E090E080E00E94B3116B017C01D80188
:1020100013961C9117FF0AC0AC019B0160E070E0B1
:1020200080E89FEB0E940C136B017C011F70612FF5
:1020300070E090E080E00E94B5112DEC3CEC4CEC9F
:102040005DE30E941412A70196010E940D136B011B
:102050007C01A3019201C301B2010E94AD13811161
:1020600018C0A7019601C701B6010E94AD138111E6
:1020700010C04092990150929A0160929B01709217
:102080009C01C0929501D0929601E0929701F09246
:1020900098018091910190919201A0919301B0914A
:1020A0009401A5019401281B390B4A0B5B0BDA0143
:1020B000C901883C9105A105B10508F460C0809272
:1020C000910190929201A0929301B092940180911B
:1020D00005019091060120910701222309F4C0C057
:1020E0009C013327F901E155FF4F8491F901E55631
:1020F000FF4F0491F901E957FF4F149111119EC050
:1021000010E000E0809103010E947D017C018EE6D9
:1021100091E00E940E056091990170919A01809161
:102120009B0190919C010E94800581E791E00E94B3
:102130000E056091950170919601809197019091A3
:1021400098010E94800585E791E00E940E05B80184
:10215000110F880B990B97FF87C00E945F0589E7D5
:1021600091E00E940E05B701FF0C880B990B97FFB9
:102170007FC00E945F058DE791E00E940E0580916F
:10218000A301882341F18091A4019091A501A09120
:10219000A601B091A7010097A105B105E1F0881A49
:1021A000990AAA0ABB0A39EB83163BE09306A104FD
:1021B000B10488F070E060E080910A010E94200183
:1021C00060E080910C010E94B600809108010E949D
:1021D000F5011092A30180E090E0892B09F4D0C8AA
:1021E0000E94BD02882309F4CBC80E940000C8C821
:1021F000F8013280632D70E090E080E00E94B3111E
:102200006B017C01D80113966C916F7070E090E0C7
:1022100080E00E94B5112DEC3CEC4CEC5DE30E949B
:102220001412A70196010E940D136B017C0137FE69
:1022300010CFF7FAF094F7F8F0940BCF81110E94C9
:102240008D00E12FF0E0EE0FFF1FE759FF4FA59142
:10225000B491EC910E2309F453CF0FEF13E052CF5A
:102260000E947D018C014ECF4AE00E941B0577CF72
:102270004AE00E941B057FCFE1EBF1E0138212825E
:1022800088EE93E0A0E0B0E084839583A683B783D3
:102290008EE191E09183808385EC90E0958784873F
:1022A00084EC90E09787868780EC90E0918B808B20
:1022B00081EC90E0938B828B82EC90E0958B848B09
:1022C00086EC90E0978B868B118E128E138E148E77
:1022D00008951F93FC0199278827BC01E894119168
:1022E0001032E9F3193010F01E30C8F31B3251F0F0
:1022F0001D3249F4689406C00E949011610F711D4F
:10230000811D911D119110531A30B0F33EF4909538
:102310008095709561957F4F8F4F9F4F1F910895C6
:10232000592F482F372F262F660F771F881F991F89
:10233000660F771F881F991F620F731F841F951FD9
:10234000660F771F881F991F089591110C948112B1
:10235000803219F089508550C8F708950E94F01115
:1023600008F481E00895E89409C097FB3EF4909545
:102370008095709561957F4F8F4F9F4F9923A9F05E
:10238000F92F96E9BB279395F695879577956795ED
:10239000B795F111F8CFFAF4BB0F11F460FF1BC031
:1023A0006F5F7F4F8F4F9F4F16C0882311F096E9C4
:1023B00011C0772321F09EE8872F762F05C0662372
:1023C00071F096E8862F70E060E02AF09A95660F2B
:1023D000771F881FDAF7880F9695879597F90895E4
:1023E000990F0008550FAA0BE0E8FEEF1616170626
:1023F000E807F907C0F012161306E407F50798F08E
:10240000621B730B840B950B39F40A2661F0232BA6
:10241000242B252B21F408950A2609F4A140A69522
:102420008FEF811D811D08950E9427120C949B122D
:102430000E948D1238F00E94941220F0952311F022
:102440000C9484120C948A1211240C94CF120E94C2
:10245000AC1270F3959FC1F3950F50E0551F629F2A
:10246000F001729FBB27F00DB11D639FAA27F00DED
:10247000B11DAA1F649F6627B00DA11D661F829F14
:102480002227B00DA11D621F739FB00DA11D621FF9
:10249000839FA00D611D221F749F3327A00D611D16
:1024A000231F849F600D211D822F762F6A2F1124F8
:1024B0009F5750409AF0F1F088234AF0EE0FFF1F2B
:1024C000BB1F661F771F881F91505040A9F79E3F82
:1024D000510580F00C9484120C94CF125F3FE4F30A
:1024E000983ED4F3869577956795B795F795E795D8
:1024F0009F5FC1F7FE2B880F911D9695879597F9E1
:10250000089599278827089597F99F6780E870E0D4
:1025100060E008959FEF80EC089500240A94161659
:10252000170618060906089500240A9412161306C1
:10253000140605060895092E0394000C11F488234F
:1025400052F0BB0F40F4BF2B11F460FF04C06F5F6B
:102550007F4F8F4F9F4F089557FD9058440F551F41
:1025600059F05F3F71F04795880F97FB991F61F015
:102570009F3F79F087950895121613061406551F8C
:10258000F2CF4695F1DF08C0161617061806991FF8
:10259000F1CF86957105610508940895E894BB27ED
:1025A00066277727CB0197F908952F923F924F9294
:1025B0005F926F927F928F929F92AF92BF92CF92D3
:1025C000DF92EF92FF920F931F93CF93DF93CDB7DC
:1025D000DEB7CA1BDB0B0FB6F894DEBF0FBECDBF54
:1025E00009942A88398848885F846E847D848C8425
:1025F0009B84AA84B984C884DF80EE80FD800C812E
:102600001B81AA81B981CE0FD11D0FB6F894DEBF10
:102610000FBECDBFED0108955058BB27AA270E94D9
:1026200024130C949B120E948D1238F00E94941275
:1026300020F039F49F3F19F426F40C948A120EF41A
:10264000E095E7FB0C948412E92F0E94AC1258F33A
:10265000BA17620773078407950720F079F4A6F587
:102660000C94CE120EF4E0950B2EBA2FA02D0B0178
:10267000B90190010C01CA01A0011124FF27591BC7
:1026800099F0593F50F4503E68F11A16F040A22FCD
:10269000232F342F4427585FF3CF4695379527953E
:1026A000A795F0405395C9F77EF41F16BA0B620B3D
:1026B000730B840BBAF09150A1F0FF0FBB1F661F84
:1026C000771F881FC2F70EC0BA0F621F731F841FC7
:1026D00048F4879577956795B795F7959E3F08F0ED
:1026E000B0CF9395880F08F09927EE0F97958795AF
:1026F00008950E94B41288F09F5798F0B92F992737
:10270000B751B0F0E1F0660F771F881F991F1AF0DC
:10271000BA95C9F714C0B13091F00E94CE12B1E061
:1027200008950C94CE12672F782F8827B85F39F060
:10273000B93FCCF3869577956795B395D9F73EF475
:1027400090958095709561957F4F8F4F9F4F08951D
:102750000E94F01108F48FEF08950E94F011880B89
:10276000990B0895A1E21A2EAA1BBB1BFD010DC0F7
:10277000AA1FBB1FEE1FFF1FA217B307E407F50731
:1027800020F0A21BB30BE40BF50B661F771F881F0D
:10279000991F1A9469F760957095809590959B01A3
:1027A000AC01BD01CF010895052E97FB1EF40094E6
:1027B0000E94EB1357FD07D00E94B21307FC03D011
:1027C0004EF40C94EB1350954095309521953F4F66
:1027D0004F4F5F4F089590958095709561957F4F0D
:1027E0008F4F9F4F0895EE0FFF1F0590F491E02D3E
:1027F00009940F931F93CF93DF938230910510F4C8
:1028000082E090E0E0915002F091510230E020E04F
:10281000B0E0A0E0309799F42115310509F44AC0E1
:10282000281B390B24303105D8F58A819B8161152D
:10283000710589F1FB0193838283FE0111C0408100
:1028400051810281138148175907E0F04817590751
:1028500099F4109761F012960C93129713961C93AB
:102860003296CF01DF91CF911F910F910895009380
:10287000500210935102F4CF2115310551F0421747
:10288000530738F0A901DB019A01BD01DF01F8010E
:10289000C1CFEF01F9CF9093510280935002CDCF79
:1028A000FE01E20FF31F8193919322503109398386
:1028B0002883D7CF20914E0230914F02232B41F431
:1028C000209116013091170130934F0220934E0250
:1028D00020911401309115012115310541F42DB7D6
:1028E0003EB74091180150911901241B350BE0911E
:1028F0004E02F0914F02E217F307A0F42E1B3F0B9C
:102900002817390778F0AC014E5F5F4F2417350761
:1029100048F04E0F5F1F50934F0240934E02819339
:1029200091939FCFF0E0E0E09CCFCF93DF930097AF
:10293000E9F0FC01329713821282A0915002B0910B
:102940005102ED0130E020E01097A1F420813181A7
:10295000820F931F20914E0230914F0228173907A2
:1029600009F061C0F0934F02E0934E02DF91CF91E6
:102970000895EA01CE17DF07E8F54A815B819E01E1
:1029800041155105B1F7E901FB83EA83499159915A
:10299000C40FD51FEC17FD0761F480819181029669
:1029A000840F951FE90199838883828193819B839A
:1029B0008A83F0E0E0E012968D919C911397009746
:1029C000B9F52D913C911197CD010296820F931F7D
:1029D00020914E0230914F022817390739F630976F
:1029E00051F51092510210925002B0934F02A093F1
:1029F0004E02BCCFD383C28340815181840F951F87
:102A0000C817D90761F44E5F5F4F88819981480FDD
:102A1000591F518340838A819B819383828321152F
:102A2000310509F0B0CFF0935102E09350029ECFF0
:102A3000FD01DC01C0CF13821282D7CFB0E0A0E04D
:102A4000E4E2F5E10C94D7128C01009751F4CB012C
:102A50000E94F9138C01C801CDB7DEB7E0E10C94F8
:102A6000F312FC01E60FF71F9C0122503109E21717
:102A7000F30708F49DC0D901CD91DC911197C617D9
:102A8000D70798F0C530D10530F3CE0104978617EB
:102A9000970708F3C61BD70B2297C193D1936D9369
:102AA0007C93CF010E949514D6CF5B01AC1ABD0A6E
:102AB0004C018C0E9D1EA0915002B0915102512CE0
:102AC000412CF12CE12C109731F580914E02909120
:102AD0004F028815990509F05CC04616570608F0A4
:102AE00058C08091140190911501009741F48DB761
:102AF0009EB74091180150911901841B950BE8175E
:102B0000F90708F055C0F0934F02E0934E02F90127
:102B100071836083A0CF8D919C91119712966C90D8
:102B2000129713967C901397A815B90559F56C0167
:102B300042E0C40ED11CCA14DB0420F1AC014A19D6
:102B40005B09DA011296159780F0628273825183D5
:102B50004083D9016D937C93E114F10471F0D701A6
:102B60001396FC93EE93129776CF22968C0F9D1FAF
:102B7000F90191838083F301EFCFF0935102E09349
:102B8000500269CF4816590608F42C017D01D30183
:102B90009ACFCB010E94F9137C01009749F0AE0156
:102BA000B8010E94DB15C8010E949514870153CF1C
:102BB00010E000E050CFFB01DC0102C001900D925B
:102BC00041505040D8F70895FC018191861721F0BB
:102BD0008823D9F7992708953197CF010895FB01EC
:102BE000DC018D91019080190110D9F3990B0895A2
:102BF000FB01DC0101900D920020E1F70895FB013B
:102C0000DC014150504030F08D910190801919F451
:102C10000020B9F7881B990B0895FB0151915523AA
:102C2000A9F0BF01DC014D9145174111E1F759F4BD
:102C3000CD010190002049F04D9140154111C9F39B
:102C4000FB014111EFCF81E090E001970895F894E6
:022C5000FFCFB4
:102C5200FF03000F000E00010400060007000B0036
:102C62000A00090000005202800000000000F30286
:102C720021024E024003B1025D02A3026E616E00A8
:102C8200696E66006F76660041005247423A005014
:102C9200554D503A0042555A3A004346473A00448D
:102CA20048543A004C49473A00534F494C3A004C79
:102CB200494748545F545950453A00444F00483AF6
:102CC200002C543A002C4C3A002C533A000D0A00C6
:00000001FF
